{"abi":[{"type":"constructor","inputs":[],"stateMutability":"nonpayable"},{"type":"function","name":"allowance","inputs":[{"name":"owner","type":"address","internalType":"address"},{"name":"spender","type":"address","internalType":"address"}],"outputs":[{"name":"","type":"uint256","internalType":"uint256"}],"stateMutability":"view"},{"type":"function","name":"approve","inputs":[{"name":"spender","type":"address","internalType":"address"},{"name":"value","type":"uint256","internalType":"uint256"}],"outputs":[{"name":"","type":"bool","internalType":"bool"}],"stateMutability":"nonpayable"},{"type":"function","name":"balanceOf","inputs":[{"name":"account","type":"address","internalType":"address"}],"outputs":[{"name":"","type":"uint256","internalType":"uint256"}],"stateMutability":"view"},{"type":"function","name":"decimals","inputs":[],"outputs":[{"name":"","type":"uint8","internalType":"uint8"}],"stateMutability":"view"},{"type":"function","name":"mint","inputs":[],"outputs":[],"stateMutability":"nonpayable"},{"type":"function","name":"name","inputs":[],"outputs":[{"name":"","type":"string","internalType":"string"}],"stateMutability":"view"},{"type":"function","name":"symbol","inputs":[],"outputs":[{"name":"","type":"string","internalType":"string"}],"stateMutability":"view"},{"type":"function","name":"totalSupply","inputs":[],"outputs":[{"name":"","type":"uint256","internalType":"uint256"}],"stateMutability":"view"},{"type":"function","name":"transfer","inputs":[{"name":"to","type":"address","internalType":"address"},{"name":"value","type":"uint256","internalType":"uint256"}],"outputs":[{"name":"","type":"bool","internalType":"bool"}],"stateMutability":"nonpayable"},{"type":"function","name":"transferFrom","inputs":[{"name":"from","type":"address","internalType":"address"},{"name":"to","type":"address","internalType":"address"},{"name":"value","type":"uint256","internalType":"uint256"}],"outputs":[{"name":"","type":"bool","internalType":"bool"}],"stateMutability":"nonpayable"},{"type":"event","name":"Approval","inputs":[{"name":"owner","type":"address","indexed":true,"internalType":"address"},{"name":"spender","type":"address","indexed":true,"internalType":"address"},{"name":"value","type":"uint256","indexed":false,"internalType":"uint256"}],"anonymous":false},{"type":"event","name":"Transfer","inputs":[{"name":"from","type":"address","indexed":true,"internalType":"address"},{"name":"to","type":"address","indexed":true,"internalType":"address"},{"name":"value","type":"uint256","indexed":false,"internalType":"uint256"}],"anonymous":false},{"type":"error","name":"ERC20InsufficientAllowance","inputs":[{"name":"spender","type":"address","internalType":"address"},{"name":"allowance","type":"uint256","internalType":"uint256"},{"name":"needed","type":"uint256","internalType":"uint256"}]},{"type":"error","name":"ERC20InsufficientBalance","inputs":[{"name":"sender","type":"address","internalType":"address"},{"name":"balance","type":"uint256","internalType":"uint256"},{"name":"needed","type":"uint256","internalType":"uint256"}]},{"type":"error","name":"ERC20InvalidApprover","inputs":[{"name":"approver","type":"address","internalType":"address"}]},{"type":"error","name":"ERC20InvalidReceiver","inputs":[{"name":"receiver","type":"address","internalType":"address"}]},{"type":"error","name":"ERC20InvalidSender","inputs":[{"name":"sender","type":"address","internalType":"address"}]},{"type":"error","name":"ERC20InvalidSpender","inputs":[{"name":"spender","type":"address","internalType":"address"}]}],"bytecode":{"object":"0x608060405234801561000f575f5ffd5b506040518060400160405280600f81526020016e2bb930b83832b2102134ba31b7b4b760891b815250604051806040016040528060048152602001635742544360e01b8152508160039081610064919061028e565b506004610071828261028e565b50505061008e3369d3c21bcecceda100000061009360201b60201c565b61036d565b6001600160a01b0382166100c15760405163ec442f0560e01b81525f60048201526024015b60405180910390fd5b6100cc5f83836100d0565b5050565b6001600160a01b0383166100fa578060025f8282546100ef9190610348565b9091555061016a9050565b6001600160a01b0383165f908152602081905260409020548181101561014c5760405163391434e360e21b81526001600160a01b038516600482015260248101829052604481018390526064016100b8565b6001600160a01b0384165f9081526020819052604090209082900390555b6001600160a01b038216610186576002805482900390556101a4565b6001600160a01b0382165f9081526020819052604090208054820190555b816001600160a01b0316836001600160a01b03167fddf252ad1be2c89b69c2b068fc378daa952ba7f163c4a11628f55a4df523b3ef836040516101e991815260200190565b60405180910390a3505050565b634e487b7160e01b5f52604160045260245ffd5b600181811c9082168061021e57607f821691505b60208210810361023c57634e487b7160e01b5f52602260045260245ffd5b50919050565b601f82111561028957805f5260205f20601f840160051c810160208510156102675750805b601f840160051c820191505b81811015610286575f8155600101610273565b50505b505050565b81516001600160401b038111156102a7576102a76101f6565b6102bb816102b5845461020a565b84610242565b6020601f8211600181146102ed575f83156102d65750848201515b5f19600385901b1c1916600184901b178455610286565b5f84815260208120601f198516915b8281101561031c57878501518255602094850194600190920191016102fc565b508482101561033957868401515f19600387901b60f8161c191681555b50505050600190811b01905550565b8082018082111561036757634e487b7160e01b5f52601160045260245ffd5b92915050565b6107438061037a5f395ff3fe608060405234801561000f575f5ffd5b506004361061009b575f3560e01c8063313ce56711610063578063313ce5671461010f57806370a082311461011e57806395d89b4114610146578063a9059cbb1461014e578063dd62ed3e14610161575f5ffd5b806306fdde031461009f578063095ea7b3146100bd5780631249c58b146100e057806318160ddd146100ea57806323b872dd146100fc575b5f5ffd5b6100a7610199565b6040516100b491906105b3565b60405180910390f35b6100d06100cb366004610603565b610229565b60405190151581526020016100b4565b6100e8610242565b005b6002545b6040519081526020016100b4565b6100d061010a36600461062b565b610255565b604051601281526020016100b4565b6100ee61012c366004610665565b6001600160a01b03165f9081526020819052604090205490565b6100a7610278565b6100d061015c366004610603565b610287565b6100ee61016f366004610685565b6001600160a01b039182165f90815260016020908152604080832093909416825291909152205490565b6060600380546101a8906106b6565b80601f01602080910402602001604051908101604052809291908181526020018280546101d4906106b6565b801561021f5780601f106101f65761010080835404028352916020019161021f565b820191905f5260205f20905b81548152906001019060200180831161020257829003601f168201915b5050505050905090565b5f33610236818585610294565b60019150505b92915050565b61025333662386f26fc100006102a6565b565b5f336102628582856102e3565b61026d85858561035e565b506001949350505050565b6060600480546101a8906106b6565b5f3361023681858561035e565b6102a183838360016103bb565b505050565b6001600160a01b0382166102d45760405163ec442f0560e01b81525f60048201526024015b60405180910390fd5b6102df5f838361048d565b5050565b6001600160a01b038381165f908152600160209081526040808320938616835292905220545f198114610358578181101561034a57604051637dc7a0d960e11b81526001600160a01b038416600482015260248101829052604481018390526064016102cb565b61035884848484035f6103bb565b50505050565b6001600160a01b03831661038757604051634b637e8f60e11b81525f60048201526024016102cb565b6001600160a01b0382166103b05760405163ec442f0560e01b81525f60048201526024016102cb565b6102a183838361048d565b6001600160a01b0384166103e45760405163e602df0560e01b81525f60048201526024016102cb565b6001600160a01b03831661040d57604051634a1406b160e11b81525f60048201526024016102cb565b6001600160a01b038085165f908152600160209081526040808320938716835292905220829055801561035857826001600160a01b0316846001600160a01b03167f8c5be1e5ebec7d5bd14f71427d1e84f3dd0314c0f7b2291e5b200ac8c7c3b9258460405161047f91815260200190565b60405180910390a350505050565b6001600160a01b0383166104b7578060025f8282546104ac91906106ee565b909155506105279050565b6001600160a01b0383165f90815260208190526040902054818110156105095760405163391434e360e21b81526001600160a01b038516600482015260248101829052604481018390526064016102cb565b6001600160a01b0384165f9081526020819052604090209082900390555b6001600160a01b03821661054357600280548290039055610561565b6001600160a01b0382165f9081526020819052604090208054820190555b816001600160a01b0316836001600160a01b03167fddf252ad1be2c89b69c2b068fc378daa952ba7f163c4a11628f55a4df523b3ef836040516105a691815260200190565b60405180910390a3505050565b602081525f82518060208401528060208501604085015e5f604082850101526040601f19601f83011684010191505092915050565b80356001600160a01b03811681146105fe575f5ffd5b919050565b5f5f60408385031215610614575f5ffd5b61061d836105e8565b946020939093013593505050565b5f5f5f6060848603121561063d575f5ffd5b610646846105e8565b9250610654602085016105e8565b929592945050506040919091013590565b5f60208284031215610675575f5ffd5b61067e826105e8565b9392505050565b5f5f60408385031215610696575f5ffd5b61069f836105e8565b91506106ad602084016105e8565b90509250929050565b600181811c908216806106ca57607f821691505b6020821081036106e857634e487b7160e01b5f52602260045260245ffd5b50919050565b8082018082111561023c57634e487b7160e01b5f52601160045260245ffdfea2646970667358221220b555ec78ca6dfb4faac19359e3627bbf5cf49fa16998bf5702209ec14a89468a64736f6c634300081b0033","linkReferences":{}},"methodIdentifiers":{"allowance(address,address)":"dd62ed3e","approve(address,uint256)":"095ea7b3","balanceOf(address)":"70a08231","decimals()":"313ce567","mint()":"1249c58b","name()":"06fdde03","symbol()":"95d89b41","totalSupply()":"18160ddd","transfer(address,uint256)":"a9059cbb","transferFrom(address,address,uint256)":"23b872dd"},"id":28}