{"abi":[{"type":"constructor","inputs":[{"name":"_numberOfTokens","type":"uint256","internalType":"uint256"},{"name":"_company","type":"address","internalType":"address"},{"name":"_companyWithdrawalPercentage","type":"uint8","internalType":"uint8"},{"name":"_i_OWNERWITHDRAWALPERCENTAGE","type":"uint8","internalType":"uint8"},{"name":"_i_SECONDOWNERWITHDRAWALPERCENTAGE","type":"uint8","internalType":"uint8"},{"name":"_i_secondowner","type":"address","internalType":"address"},{"name":"_i_numberOfVirtualWei","type":"uint256","internalType":"uint256"}],"stateMutability":"nonpayable"},{"type":"function","name":"allowance","inputs":[{"name":"owner","type":"address","internalType":"address"},{"name":"spender","type":"address","internalType":"address"}],"outputs":[{"name":"","type":"uint256","internalType":"uint256"}],"stateMutability":"view"},{"type":"function","name":"approve","inputs":[{"name":"spender","type":"address","internalType":"address"},{"name":"value","type":"uint256","internalType":"uint256"}],"outputs":[{"name":"","type":"bool","internalType":"bool"}],"stateMutability":"nonpayable"},{"type":"function","name":"balanceOf","inputs":[{"name":"account","type":"address","internalType":"address"}],"outputs":[{"name":"","type":"uint256","internalType":"uint256"}],"stateMutability":"view"},{"type":"function","name":"burn","inputs":[{"name":"_numberOfTokens","type":"uint256","internalType":"uint256"}],"outputs":[],"stateMutability":"nonpayable"},{"type":"function","name":"buyTokens","inputs":[{"name":"wBTCAmount","type":"uint256","internalType":"uint256"}],"outputs":[],"stateMutability":"nonpayable"},{"type":"function","name":"decimals","inputs":[],"outputs":[{"name":"","type":"uint8","internalType":"uint8"}],"stateMutability":"view"},{"type":"function","name":"geNumberOfTokensInTheMarcetCapp","inputs":[],"outputs":[{"name":"","type":"uint256","internalType":"uint256"}],"stateMutability":"view"},{"type":"function","name":"getMarketCap","inputs":[],"outputs":[{"name":"","type":"uint256","internalType":"uint256"}],"stateMutability":"view"},{"type":"function","name":"getValueOfOneTokenInWei","inputs":[],"outputs":[{"name":"","type":"uint256","internalType":"uint256"}],"stateMutability":"view"},{"type":"function","name":"getcompanyAllreadyWithdrawalThisMany","inputs":[],"outputs":[{"name":"","type":"int256","internalType":"int256"}],"stateMutability":"view"},{"type":"function","name":"getcompanyWithdrawalPercentage","inputs":[],"outputs":[{"name":"","type":"uint256","internalType":"uint256"}],"stateMutability":"view"},{"type":"function","name":"getownerAllreadyWithdrawalThisMany","inputs":[],"outputs":[{"name":"","type":"uint256","internalType":"uint256"}],"stateMutability":"view"},{"type":"function","name":"getsecondownerAllreadyWithdrawalThisMany","inputs":[],"outputs":[{"name":"","type":"uint256","internalType":"uint256"}],"stateMutability":"view"},{"type":"function","name":"getwBTCBalance","inputs":[],"outputs":[{"name":"","type":"uint256","internalType":"uint256"}],"stateMutability":"view"},{"type":"function","name":"getwBTCBalanceNotZero","inputs":[],"outputs":[{"name":"","type":"uint256","internalType":"uint256"}],"stateMutability":"view"},{"type":"function","name":"mint","inputs":[{"name":"_numberOfTokens","type":"uint256","internalType":"uint256"}],"outputs":[],"stateMutability":"nonpayable"},{"type":"function","name":"name","inputs":[],"outputs":[{"name":"","type":"string","internalType":"string"}],"stateMutability":"view"},{"type":"function","name":"owner","inputs":[],"outputs":[{"name":"","type":"address","internalType":"address"}],"stateMutability":"view"},{"type":"function","name":"renounceOwnership","inputs":[],"outputs":[],"stateMutability":"nonpayable"},{"type":"function","name":"sellTokens","inputs":[{"name":"_tokenAmount","type":"uint256","internalType":"uint256"}],"outputs":[],"stateMutability":"nonpayable"},{"type":"function","name":"setCompanyCanWithdraw","inputs":[{"name":"_companyCanWithdraw","type":"bool","internalType":"bool"}],"outputs":[],"stateMutability":"nonpayable"},{"type":"function","name":"setcompanyWithdrawalPercentage","inputs":[{"name":"newcompanyWithdrawalPercentage","type":"uint8","internalType":"uint8"}],"outputs":[],"stateMutability":"nonpayable"},{"type":"function","name":"symbol","inputs":[],"outputs":[{"name":"","type":"string","internalType":"string"}],"stateMutability":"view"},{"type":"function","name":"totalSupply","inputs":[],"outputs":[{"name":"","type":"uint256","internalType":"uint256"}],"stateMutability":"view"},{"type":"function","name":"transfer","inputs":[{"name":"to","type":"address","internalType":"address"},{"name":"value","type":"uint256","internalType":"uint256"}],"outputs":[{"name":"","type":"bool","internalType":"bool"}],"stateMutability":"nonpayable"},{"type":"function","name":"transferFrom","inputs":[{"name":"from","type":"address","internalType":"address"},{"name":"to","type":"address","internalType":"address"},{"name":"value","type":"uint256","internalType":"uint256"}],"outputs":[{"name":"","type":"bool","internalType":"bool"}],"stateMutability":"nonpayable"},{"type":"function","name":"transferOwnership","inputs":[{"name":"newOwner","type":"address","internalType":"address"}],"outputs":[],"stateMutability":"nonpayable"},{"type":"function","name":"uplodeMoney","inputs":[{"name":"wBTCAmount","type":"uint256","internalType":"uint256"}],"outputs":[],"stateMutability":"nonpayable"},{"type":"function","name":"wBTC","inputs":[],"outputs":[{"name":"","type":"address","internalType":"contract IERC20"}],"stateMutability":"view"},{"type":"function","name":"withdowOwners","inputs":[{"name":"withdrawValueinWei","type":"uint256","internalType":"uint256"}],"outputs":[],"stateMutability":"nonpayable"},{"type":"function","name":"withdrawCompany","inputs":[{"name":"withdrawValueinWei","type":"uint256","internalType":"uint256"}],"outputs":[],"stateMutability":"nonpayable"},{"type":"event","name":"Approval","inputs":[{"name":"owner","type":"address","indexed":true,"internalType":"address"},{"name":"spender","type":"address","indexed":true,"internalType":"address"},{"name":"value","type":"uint256","indexed":false,"internalType":"uint256"}],"anonymous":false},{"type":"event","name":"OwnershipTransferred","inputs":[{"name":"previousOwner","type":"address","indexed":true,"internalType":"address"},{"name":"newOwner","type":"address","indexed":true,"internalType":"address"}],"anonymous":false},{"type":"event","name":"TokensBought","inputs":[{"name":"buyer","type":"address","indexed":true,"internalType":"address"},{"name":"wBTCAmount","type":"uint256","indexed":false,"internalType":"uint256"},{"name":"tokenAmount","type":"uint256","indexed":false,"internalType":"uint256"}],"anonymous":false},{"type":"event","name":"TokensSold","inputs":[{"name":"seller","type":"address","indexed":true,"internalType":"address"},{"name":"tokenAmount","type":"uint256","indexed":false,"internalType":"uint256"},{"name":"wBTCAmount","type":"uint256","indexed":false,"internalType":"uint256"}],"anonymous":false},{"type":"event","name":"Transfer","inputs":[{"name":"from","type":"address","indexed":true,"internalType":"address"},{"name":"to","type":"address","indexed":true,"internalType":"address"},{"name":"value","type":"uint256","indexed":false,"internalType":"uint256"}],"anonymous":false},{"type":"event","name":"Withdrawal","inputs":[{"name":"account","type":"address","indexed":true,"internalType":"address"},{"name":"amount","type":"uint256","indexed":false,"internalType":"uint256"}],"anonymous":false},{"type":"error","name":"Coin__BurnMoreThanTheTokensInTheMarcatCap","inputs":[]},{"type":"error","name":"Coin__CompanyWantsToWithdrawMoreMoneyThanAllowed","inputs":[]},{"type":"error","name":"Coin__FailedToReceiveWBTC","inputs":[]},{"type":"error","name":"Coin__FailedToSendWBTC","inputs":[]},{"type":"error","name":"Coin__InsufficientTokens","inputs":[]},{"type":"error","name":"Coin__InsufficientWBTC","inputs":[]},{"type":"error","name":"Coin__InsufficientWBTCInContract","inputs":[]},{"type":"error","name":"Coin__MustBeMoreThanZero","inputs":[]},{"type":"error","name":"Coin__NotAuthorized","inputs":[]},{"type":"error","name":"Coin__NotEnoughTokensAvailable","inputs":[]},{"type":"error","name":"Coin__WBTCTransferFailed","inputs":[]},{"type":"error","name":"ERC20InsufficientAllowance","inputs":[{"name":"spender","type":"address","internalType":"address"},{"name":"allowance","type":"uint256","internalType":"uint256"},{"name":"needed","type":"uint256","internalType":"uint256"}]},{"type":"error","name":"ERC20InsufficientBalance","inputs":[{"name":"sender","type":"address","internalType":"address"},{"name":"balance","type":"uint256","internalType":"uint256"},{"name":"needed","type":"uint256","internalType":"uint256"}]},{"type":"error","name":"ERC20InvalidApprover","inputs":[{"name":"approver","type":"address","internalType":"address"}]},{"type":"error","name":"ERC20InvalidReceiver","inputs":[{"name":"receiver","type":"address","internalType":"address"}]},{"type":"error","name":"ERC20InvalidSender","inputs":[{"name":"sender","type":"address","internalType":"address"}]},{"type":"error","name":"ERC20InvalidSpender","inputs":[{"name":"spender","type":"address","internalType":"address"}]},{"type":"error","name":"OwnableInvalidOwner","inputs":[{"name":"owner","type":"address","internalType":"address"}]},{"type":"error","name":"OwnableUnauthorizedAccount","inputs":[{"name":"account","type":"address","internalType":"address"}]},{"type":"error","name":"ReentrancyGuardReentrantCall","inputs":[]}],"bytecode":{"object":"0x6101406040525f60078190556008819055600b805460ff19908116601417909155600c829055600d91909155600e80549091166001179055348015610042575f5ffd5b506040516122d03803806122d083398101604081905261006191610383565b306040518060400160405280600b81526020016a43727970746f53746f636b60a81b81525060405180604001604052806002815260200161435360f01b81525081600390816100b09190610493565b5060046100bd8282610493565b5050506001600160a01b0381166100ee57604051631e4fbdf760e01b81525f60048201526024015b60405180910390fd5b6100f7816101a9565b506001600655336080526001600160a01b0386811661012052600b805460ff191660ff8881169190911790915584811660e052851660a052821660c052600a81905561015f30610145601290565b61015090600a610646565b61015a908a61065b565b6101fa565b60025461016e6012600a610646565b600a5461017b919061065b565b6101859190610672565b600955600254600a54610198919061065b565b61010052506106a495505050505050565b600580546001600160a01b038381166001600160a01b0319831681179093556040519116919082907f8be0079c531659141344cd1fd0a4f28419497f9722a3daafe3b4186f6b6457e0905f90a35050565b6001600160a01b0382166102235760405163ec442f0560e01b81525f60048201526024016100e5565b61022e5f8383610232565b5050565b6001600160a01b03831661025c578060025f8282546102519190610691565b909155506102cc9050565b6001600160a01b0383165f90815260208190526040902054818110156102ae5760405163391434e360e21b81526001600160a01b038516600482015260248101829052604481018390526064016100e5565b6001600160a01b0384165f9081526020819052604090209082900390555b6001600160a01b0382166102e857600280548290039055610306565b6001600160a01b0382165f9081526020819052604090208054820190555b816001600160a01b0316836001600160a01b03167fddf252ad1be2c89b69c2b068fc378daa952ba7f163c4a11628f55a4df523b3ef8360405161034b91815260200190565b60405180910390a3505050565b80516001600160a01b038116811461036e575f5ffd5b919050565b805160ff8116811461036e575f5ffd5b5f5f5f5f5f5f5f60e0888a031215610399575f5ffd5b875196506103a960208901610358565b95506103b760408901610373565b94506103c560608901610373565b93506103d360808901610373565b92506103e160a08901610358565b91505f60c089015190508091505092959891949750929550565b634e487b7160e01b5f52604160045260245ffd5b600181811c9082168061042357607f821691505b60208210810361044157634e487b7160e01b5f52602260045260245ffd5b50919050565b601f82111561048e57805f5260205f20601f840160051c8101602085101561046c5750805b601f840160051c820191505b8181101561048b575f8155600101610478565b50505b505050565b81516001600160401b038111156104ac576104ac6103fb565b6104c0816104ba845461040f565b84610447565b6020601f8211600181146104f2575f83156104db5750848201515b5f19600385901b1c1916600184901b17845561048b565b5f84815260208120601f198516915b828110156105215787850151825560209485019460019092019101610501565b508482101561053e57868401515f19600387901b60f8161c191681555b50505050600190811b01905550565b634e487b7160e01b5f52601160045260245ffd5b6001815b600184111561059c578085048111156105805761058061054d565b600184161561058e57908102905b60019390931c928002610565565b935093915050565b5f826105b257506001610640565b816105be57505f610640565b81600181146105d457600281146105de576105fa565b6001915050610640565b60ff8411156105ef576105ef61054d565b50506001821b610640565b5060208310610133831016604e8410600b841016171561061d575081810a610640565b6106295f198484610561565b805f190482111561063c5761063c61054d565b0290505b92915050565b5f61065460ff8416836105a4565b9392505050565b80820281158282048414176106405761064061054d565b5f8261068c57634e487b7160e01b5f52601260045260245ffd5b500490565b808201808211156106405761064061054d565b60805160a05160c05160e0516101005161012051611b7c6107545f395f81816104d30152818161052d01528181610a4e01528181610e0a0152610e8b01525f818161084e01528181610b7201528181611029015261159301525f81816106860152610cf101525f8181610657015281816106aa01528181610a1b0152610dd701525f81816105f40152610d1501525f81816105c501528181610618015281816109e90152610da50152611b7c5ff3fe608060405234801561000f575f5ffd5b50600436106101dc575f3560e01c806370a0823111610109578063a0712d681161009e578063dc87fe7e1161006e578063dc87fe7e146103c1578063dd62ed3e146103cc578063f2fde38b14610404578063f3836a4314610417575f5ffd5b8063a0712d6814610380578063a9059cbb14610393578063ba8e0b5f146103a6578063d7b571b8146103b9575f5ffd5b80638da5cb5b116100d95780638da5cb5b1461033057806390825c281461035557806395d89b411461035d5780639b45293114610365575f5ffd5b806370a08231146102e5578063715018a61461030d5780637c131dea146103155780637ec8bc2014610328575f5ffd5b806323b872dd1161017f5780633610724e1161014f5780633610724e146102a457806336f32463146102b757806342966c68146102bf5780636c11bcd3146102d2575f5ffd5b806323b872dd146102725780632545a118146102855780632c9b75ec1461028d578063313ce56714610295575f5ffd5b80630b6fc239116101ba5780630b6fc2391461022f5780630ba5bc5014610244578063171cbf691461025757806318160ddd1461026a575f5ffd5b806303253e25146101e057806306fdde03146101f7578063095ea7b31461020c575b5f5ffd5b6007545b6040519081526020015b60405180910390f35b6101ff61041f565b6040516101ee9190611755565b61021f61021a3660046117a0565b6104af565b60405190151581526020016101ee565b61024261023d3660046117c8565b6104c8565b005b6102426102523660046117ec565b6105a0565b6102426102653660046117c8565b6105bb565b6002546101e4565b61021f61028036600461180e565b6106f8565b600c546101e4565b6101e461071b565b604051601281526020016101ee565b6102426102b23660046117c8565b610793565b6008546101e4565b6102426102cd3660046117c8565b6109de565b6102426102e03660046117c8565b610ae7565b6101e46102f3366004611848565b6001600160a01b03165f9081526020819052604090205490565b610242610cd2565b610242610323366004611861565b610ce5565b600d546101e4565b6005546001600160a01b03165b6040516001600160a01b0390911681526020016101ee565b6101e4610d7a565b6101ff610d8b565b61033d739be89d2a4cd102d8fecc6bf9da793be995c2254181565b61024261038e3660046117c8565b610d9a565b61021f6103a13660046117a0565b610e73565b6102426103b43660046117c8565b610e80565b6009546101e4565b600b5460ff166101e4565b6101e46103da366004611881565b6001600160a01b039182165f90815260016020908152604080832093909416825291909152205490565b610242610412366004611848565b6110d9565b6101e4611118565b60606003805461042e906118b2565b80601f016020809104026020016040519081016040528092919081815260200182805461045a906118b2565b80156104a55780601f1061047c576101008083540402835291602001916104a5565b820191905f5260205f20905b81548152906001019060200180831161048857829003601f168201915b5050505050905090565b5f336104bc818585611149565b60019150505b92915050565b336001600160a01b037f0000000000000000000000000000000000000000000000000000000000000000161461051157604051633e5a022160e01b815260040160405180910390fd5b600e5460ff161561059d57600c54600b5461055191839160ff167f000000000000000000000000000000000000000000000000000000000000000061115b565b80600c5f82825461056291906118fe565b909155505060405181815233907f7fcf532c15f0a6db0bd6d0e038bea71d30d808c7d98cb3bf7268a95bf5081b659060200160405180910390a25b50565b6105a8611271565b600e805460ff1916911515919091179055565b6001600160a01b037f000000000000000000000000000000000000000000000000000000000000000016330361064d5761063c816007547f000000000000000000000000000000000000000000000000000000000000000060ff167f000000000000000000000000000000000000000000000000000000000000000061115b565b8060075f8282546105629190611925565b6001600160a01b037f00000000000000000000000000000000000000000000000000000000000000001633036106df576106ce816008547f000000000000000000000000000000000000000000000000000000000000000060ff167f000000000000000000000000000000000000000000000000000000000000000061115b565b8060085f8282546105629190611925565b604051633e5a022160e01b815260040160405180910390fd5b5f3361070585828561129e565b610710858585611313565b506001949350505050565b6040516370a0823160e01b81523060048201525f90739be89d2a4cd102d8fecc6bf9da793be995c22541906370a0823190602401602060405180830381865afa15801561076a573d5f5f3e3d5ffd5b505050506040513d601f19601f8201168201806040525081019061078e9190611938565b905090565b61079b611370565b806040516370a0823160e01b81523360048201525f90739be89d2a4cd102d8fecc6bf9da793be995c22541906370a0823190602401602060405180830381865afa1580156107eb573d5f5f3e3d5ffd5b505050506040513d601f19601f8201168201806040525081019061080f9190611938565b905081811015610832576040516314631a4560e11b815260040160405180910390fd5b5f600a5461083e61071b565b6108489190611925565b610872907f0000000000000000000000000000000000000000000000000000000000000000611963565b90505f81600d5461088260025490565b61088c9190611976565b6108969190611976565b305f908152602081905260409020549091508111156108c857604051636562594760e01b815260040160405180910390fd5b6040516323b872dd60e01b8152336004820152306024820152604481018690525f90739be89d2a4cd102d8fecc6bf9da793be995c22541906323b872dd906064016020604051808303815f875af1158015610925573d5f5f3e3d5ffd5b505050506040513d601f19601f820116820180604052508101906109499190611989565b905080610969576040516336ffdad760e01b815260040160405180910390fd5b610974303384611313565b81600d5f8282546109859190611925565b90915550610993905061139a565b604080518781526020810184905233917f8442948036198f1146d3a63c3db355d7e0295c2cc5676c755990445da4fdc1c991015b60405180910390a2505050505061059d6001600655565b336001600160a01b037f0000000000000000000000000000000000000000000000000000000000000000161480610a3d5750336001600160a01b037f000000000000000000000000000000000000000000000000000000000000000016145b80610a705750336001600160a01b037f000000000000000000000000000000000000000000000000000000000000000016145b610a8d57604051633e5a022160e01b815260040160405180910390fd5b5f8111610aad5760405163b5b9a29d60e01b815260040160405180910390fd5b600d54600254610abd9190611976565b811115610add57604051638e104be760e01b815260040160405180910390fd5b61059d30826113e4565b610aef611370565b5f8111610b0f5760405163b5b9a29d60e01b815260040160405180910390fd5b335f9081526020819052604090205481811015610b3f576040516319b99e4b60e11b815260040160405180910390fd5b5f610b4861071b565b90505f83600d54610b5860025490565b610b629190611976565b610b6c9190611925565b610b96907f0000000000000000000000000000000000000000000000000000000000000000611963565b90505f81600a5484610ba89190611925565b610bb29190611976565b905080831015610bd5576040516343575d2360e01b815260040160405180910390fd5b610be0333087611313565b60405163a9059cbb60e01b8152336004820152602481018290525f90739be89d2a4cd102d8fecc6bf9da793be995c225419063a9059cbb906044016020604051808303815f875af1158015610c37573d5f5f3e3d5ffd5b505050506040513d601f19601f82011682018060405250810190610c5b9190611989565b905080610c7b5760405163645cc57160e01b815260040160405180910390fd5b85600d5f828254610c8c9190611976565b90915550610c9a905061139a565b604080518781526020810184905233917f2dcf9433d75db0d8b1c172641f85e319ffe4ad22e108a95d1847ceb906e5195d91016109c7565b610cda611271565b610ce35f61141c565b565b610ced611271565b60647f0000000000000000000000000000000000000000000000000000000000000000610d3a7f0000000000000000000000000000000000000000000000000000000000000000846119a4565b610d4491906119a4565b60ff161015610d6157600b805460ff831660ff1990911617905550565b6040516332297daf60e01b815260040160405180910390fd5b5f600954600d5461078e91906119bd565b60606004805461042e906118b2565b336001600160a01b037f0000000000000000000000000000000000000000000000000000000000000000161480610df95750336001600160a01b037f000000000000000000000000000000000000000000000000000000000000000016145b80610e2c5750336001600160a01b037f000000000000000000000000000000000000000000000000000000000000000016145b610e4957604051633e5a022160e01b815260040160405180910390fd5b5f8111610e695760405163b5b9a29d60e01b815260040160405180910390fd5b61059d308261146d565b5f336104bc818585611313565b336001600160a01b037f00000000000000000000000000000000000000000000000000000000000000001614610ec957604051633e5a022160e01b815260040160405180910390fd5b610ed1611370565b806040516370a0823160e01b81523360048201525f90739be89d2a4cd102d8fecc6bf9da793be995c22541906370a0823190602401602060405180830381865afa158015610f21573d5f5f3e3d5ffd5b505050506040513d601f19601f82011682018060405250810190610f459190611938565b905081811015610f68576040516314631a4560e11b815260040160405180910390fd5b6040516323b872dd60e01b8152336004820152306024820152604481018490525f90739be89d2a4cd102d8fecc6bf9da793be995c22541906323b872dd906064016020604051808303815f875af1158015610fc5573d5f5f3e3d5ffd5b505050506040513d601f19601f82011682018060405250810190610fe99190611989565b9050806110095760405163afdbcc6360e01b815260040160405180910390fd5b5f611012611118565b90505f600a54826110239190611925565b61104d907f0000000000000000000000000000000000000000000000000000000000000000611963565b905061107381600d5461105f60025490565b6110699190611976565b6102cd9190611976565b61107d8683611976565b600a5461108a90886119bd565b6110949190611963565b600a5f8282546110a49190611925565b9250508190555085600c5f8282546110bc91906119d4565b909155506110ca905061139a565b505050505061059d6001600655565b6110e1611271565b6001600160a01b03811661110f57604051631e4fbdf760e01b81525f60048201526024015b60405180910390fd5b61059d8161141c565b5f5f61112261071b565b90505f81116111445760405163b5b9a29d60e01b815260040160405180910390fd5b919050565b61115683838360016114a1565b505050565b611163611370565b5f61116c61071b565b90505f606461117b85846119fa565b6111859190611a29565b90508061119286886118fe565b13156111b1576040516343575d2360e01b815260040160405180910390fd5b60405163a9059cbb60e01b81526001600160a01b0384166004820152602481018790525f90739be89d2a4cd102d8fecc6bf9da793be995c225419063a9059cbb906044016020604051808303815f875af1158015611211573d5f5f3e3d5ffd5b505050506040513d601f19601f820116820180604052508101906112359190611989565b9050806112555760405163645cc57160e01b815260040160405180910390fd5b61125e87611573565b50505061126b6001600655565b50505050565b6005546001600160a01b03163314610ce35760405163118cdaa760e01b8152336004820152602401611106565b6001600160a01b038381165f908152600160209081526040808320938616835292905220545f19811461126b578181101561130557604051637dc7a0d960e11b81526001600160a01b03841660048201526024810182905260448101839052606401611106565b61126b84848484035f6114a1565b6001600160a01b03831661133c57604051634b637e8f60e11b81525f6004820152602401611106565b6001600160a01b0382166113655760405163ec442f0560e01b81525f6004820152602401611106565b61115683838361162f565b60026006540361139357604051633ee5aeb560e01b815260040160405180910390fd5b6002600655565b600d546002546113aa9190611976565b6113b66012600a611b38565b6113be61071b565b600a546113cb9190611925565b6113d591906119bd565b6113df9190611963565b600955565b6001600160a01b03821661140d57604051634b637e8f60e11b81525f6004820152602401611106565b611418825f8361162f565b5050565b600580546001600160a01b038381166001600160a01b0319831681179093556040519116919082907f8be0079c531659141344cd1fd0a4f28419497f9722a3daafe3b4186f6b6457e0905f90a35050565b6001600160a01b0382166114965760405163ec442f0560e01b81525f6004820152602401611106565b6114185f838361162f565b6001600160a01b0384166114ca5760405163e602df0560e01b81525f6004820152602401611106565b6001600160a01b0383166114f357604051634a1406b160e11b81525f6004820152602401611106565b6001600160a01b038085165f908152600160209081526040808320938716835292905220829055801561126b57826001600160a01b0316846001600160a01b03167f8c5be1e5ebec7d5bd14f71427d1e84f3dd0314c0f7b2291e5b200ac8c7c3b9258460405161156591815260200190565b60405180910390a350505050565b5f61157c611118565b90505f600a548261158d9190611925565b6115b7907f0000000000000000000000000000000000000000000000000000000000000000611963565b90505f600d546115c660025490565b6115d09190611976565b6115da9083611976565b90506115e581610d9a565b5f6115f08585611925565b600a546115fd90876119bd565b6116079190611963565b905080600a5f82825461161a9190611976565b90915550611628905061139a565b5050505050565b6001600160a01b038316611659578060025f82825461164e9190611925565b909155506116c99050565b6001600160a01b0383165f90815260208190526040902054818110156116ab5760405163391434e360e21b81526001600160a01b03851660048201526024810182905260448101839052606401611106565b6001600160a01b0384165f9081526020819052604090209082900390555b6001600160a01b0382166116e557600280548290039055611703565b6001600160a01b0382165f9081526020819052604090208054820190555b816001600160a01b0316836001600160a01b03167fddf252ad1be2c89b69c2b068fc378daa952ba7f163c4a11628f55a4df523b3ef8360405161174891815260200190565b60405180910390a3505050565b602081525f82518060208401528060208501604085015e5f604082850101526040601f19601f83011684010191505092915050565b80356001600160a01b0381168114611144575f5ffd5b5f5f604083850312156117b1575f5ffd5b6117ba8361178a565b946020939093013593505050565b5f602082840312156117d8575f5ffd5b5035919050565b801515811461059d575f5ffd5b5f602082840312156117fc575f5ffd5b8135611807816117df565b9392505050565b5f5f5f60608486031215611820575f5ffd5b6118298461178a565b92506118376020850161178a565b929592945050506040919091013590565b5f60208284031215611858575f5ffd5b6118078261178a565b5f60208284031215611871575f5ffd5b813560ff81168114611807575f5ffd5b5f5f60408385031215611892575f5ffd5b61189b8361178a565b91506118a96020840161178a565b90509250929050565b600181811c908216806118c657607f821691505b6020821081036118e457634e487b7160e01b5f52602260045260245ffd5b50919050565b634e487b7160e01b5f52601160045260245ffd5b8082018281125f83128015821682158216171561191d5761191d6118ea565b505092915050565b808201808211156104c2576104c26118ea565b5f60208284031215611948575f5ffd5b5051919050565b634e487b7160e01b5f52601260045260245ffd5b5f826119715761197161194f565b500490565b818103818111156104c2576104c26118ea565b5f60208284031215611999575f5ffd5b8151611807816117df565b60ff81811683821601908111156104c2576104c26118ea565b80820281158282048414176104c2576104c26118ea565b8181035f8312801583831316838312821617156119f3576119f36118ea565b5092915050565b8082025f8212600160ff1b84141615611a1557611a156118ea565b81810583148215176104c2576104c26118ea565b5f82611a3757611a3761194f565b600160ff1b82145f1984141615611a5057611a506118ea565b500590565b6001815b6001841115611a9057808504811115611a7457611a746118ea565b6001841615611a8257908102905b60019390931c928002611a59565b935093915050565b5f82611aa6575060016104c2565b81611ab257505f6104c2565b8160018114611ac85760028114611ad257611aee565b60019150506104c2565b60ff841115611ae357611ae36118ea565b50506001821b6104c2565b5060208310610133831016604e8410600b8410161715611b11575081810a6104c2565b611b1d5f198484611a55565b805f1904821115611b3057611b306118ea565b029392505050565b5f61180760ff841683611a9856fea2646970667358221220093ca2ce2b13e41ef686d5a7c71c611b4d0b2d252d634abb16a18dcabd9321b564736f6c634300081b0033","linkReferences":{}},"methodIdentifiers":{"allowance(address,address)":"dd62ed3e","approve(address,uint256)":"095ea7b3","balanceOf(address)":"70a08231","burn(uint256)":"42966c68","buyTokens(uint256)":"3610724e","decimals()":"313ce567","geNumberOfTokensInTheMarcetCapp()":"7ec8bc20","getMarketCap()":"90825c28","getValueOfOneTokenInWei()":"d7b571b8","getcompanyAllreadyWithdrawalThisMany()":"2545a118","getcompanyWithdrawalPercentage()":"dc87fe7e","getownerAllreadyWithdrawalThisMany()":"03253e25","getsecondownerAllreadyWithdrawalThisMany()":"36f32463","getwBTCBalance()":"2c9b75ec","getwBTCBalanceNotZero()":"f3836a43","mint(uint256)":"a0712d68","name()":"06fdde03","owner()":"8da5cb5b","renounceOwnership()":"715018a6","sellTokens(uint256)":"6c11bcd3","setCompanyCanWithdraw(bool)":"0ba5bc50","setcompanyWithdrawalPercentage(uint8)":"7c131dea","symbol()":"95d89b41","totalSupply()":"18160ddd","transfer(address,uint256)":"a9059cbb","transferFrom(address,address,uint256)":"23b872dd","transferOwnership(address)":"f2fde38b","uplodeMoney(uint256)":"ba8e0b5f","wBTC()":"9b452931","withdowOwners(uint256)":"171cbf69","withdrawCompany(uint256)":"0b6fc239"},"id":27}