{"abi":[{"type":"constructor","inputs":[{"name":"_numberOfTokens","type":"uint256","internalType":"uint256"},{"name":"_company","type":"address","internalType":"address"},{"name":"_companyWithdrawalPercentage","type":"uint8","internalType":"uint8"},{"name":"_i_OWNERWITHDRAWALPERCENTAGE","type":"uint8","internalType":"uint8"},{"name":"_i_SECONDOWNERWITHDRAWALPERCENTAGE","type":"uint8","internalType":"uint8"},{"name":"_i_secondowner","type":"address","internalType":"address"},{"name":"_i_numberOfVirtualWei","type":"uint256","internalType":"uint256"}],"stateMutability":"nonpayable"},{"type":"function","name":"allowance","inputs":[{"name":"owner","type":"address","internalType":"address"},{"name":"spender","type":"address","internalType":"address"}],"outputs":[{"name":"","type":"uint256","internalType":"uint256"}],"stateMutability":"view"},{"type":"function","name":"approve","inputs":[{"name":"spender","type":"address","internalType":"address"},{"name":"value","type":"uint256","internalType":"uint256"}],"outputs":[{"name":"","type":"bool","internalType":"bool"}],"stateMutability":"nonpayable"},{"type":"function","name":"balanceOf","inputs":[{"name":"account","type":"address","internalType":"address"}],"outputs":[{"name":"","type":"uint256","internalType":"uint256"}],"stateMutability":"view"},{"type":"function","name":"burn","inputs":[{"name":"_numberOfTokens","type":"uint256","internalType":"uint256"}],"outputs":[],"stateMutability":"nonpayable"},{"type":"function","name":"buyTokens","inputs":[],"outputs":[],"stateMutability":"payable"},{"type":"function","name":"decimals","inputs":[],"outputs":[{"name":"","type":"uint8","internalType":"uint8"}],"stateMutability":"view"},{"type":"function","name":"geNumberOfTokensInTheMarcetCapp","inputs":[],"outputs":[{"name":"","type":"uint256","internalType":"uint256"}],"stateMutability":"view"},{"type":"function","name":"getContractWeiBalance","inputs":[],"outputs":[{"name":"","type":"uint256","internalType":"uint256"}],"stateMutability":"view"},{"type":"function","name":"getMarketCap","inputs":[],"outputs":[{"name":"","type":"uint256","internalType":"uint256"}],"stateMutability":"view"},{"type":"function","name":"getValueOfOneTokenInWei","inputs":[],"outputs":[{"name":"","type":"uint256","internalType":"uint256"}],"stateMutability":"view"},{"type":"function","name":"getcompanyAllreadyWithdrawalThisMany","inputs":[],"outputs":[{"name":"","type":"int256","internalType":"int256"}],"stateMutability":"view"},{"type":"function","name":"getcompanyWithdrawalPercentage","inputs":[],"outputs":[{"name":"","type":"uint256","internalType":"uint256"}],"stateMutability":"view"},{"type":"function","name":"getethBalance","inputs":[],"outputs":[{"name":"","type":"uint256","internalType":"uint256"}],"stateMutability":"view"},{"type":"function","name":"getethBalanceNotZero","inputs":[],"outputs":[{"name":"","type":"uint256","internalType":"uint256"}],"stateMutability":"view"},{"type":"function","name":"getownerAllreadyWithdrawalThisMany","inputs":[],"outputs":[{"name":"","type":"uint256","internalType":"uint256"}],"stateMutability":"view"},{"type":"function","name":"getsecondownerAllreadyWithdrawalThisMany","inputs":[],"outputs":[{"name":"","type":"uint256","internalType":"uint256"}],"stateMutability":"view"},{"type":"function","name":"mint","inputs":[{"name":"_numberOfTokens","type":"uint256","internalType":"uint256"}],"outputs":[],"stateMutability":"nonpayable"},{"type":"function","name":"name","inputs":[],"outputs":[{"name":"","type":"string","internalType":"string"}],"stateMutability":"view"},{"type":"function","name":"owner","inputs":[],"outputs":[{"name":"","type":"address","internalType":"address"}],"stateMutability":"view"},{"type":"function","name":"renounceOwnership","inputs":[],"outputs":[],"stateMutability":"nonpayable"},{"type":"function","name":"sellTokens","inputs":[{"name":"_tokenAmount","type":"uint256","internalType":"uint256"}],"outputs":[],"stateMutability":"nonpayable"},{"type":"function","name":"setCompanyCanWithdraw","inputs":[{"name":"_companyCanWithdraw","type":"bool","internalType":"bool"}],"outputs":[],"stateMutability":"nonpayable"},{"type":"function","name":"setcompanyWithdrawalPercentage","inputs":[{"name":"newcompanyWithdrawalPercentage","type":"uint8","internalType":"uint8"}],"outputs":[],"stateMutability":"nonpayable"},{"type":"function","name":"setoWNERWITHDRAWALPERCENTAGE","inputs":[{"name":"_oWNERWITHDRAWALPERCENTAGE","type":"uint8","internalType":"uint8"}],"outputs":[],"stateMutability":"nonpayable"},{"type":"function","name":"symbol","inputs":[],"outputs":[{"name":"","type":"string","internalType":"string"}],"stateMutability":"view"},{"type":"function","name":"totalSupply","inputs":[],"outputs":[{"name":"","type":"uint256","internalType":"uint256"}],"stateMutability":"view"},{"type":"function","name":"transfer","inputs":[{"name":"to","type":"address","internalType":"address"},{"name":"value","type":"uint256","internalType":"uint256"}],"outputs":[{"name":"","type":"bool","internalType":"bool"}],"stateMutability":"nonpayable"},{"type":"function","name":"transferFrom","inputs":[{"name":"from","type":"address","internalType":"address"},{"name":"to","type":"address","internalType":"address"},{"name":"value","type":"uint256","internalType":"uint256"}],"outputs":[{"name":"","type":"bool","internalType":"bool"}],"stateMutability":"nonpayable"},{"type":"function","name":"transferOwnership","inputs":[{"name":"newOwner","type":"address","internalType":"address"}],"outputs":[],"stateMutability":"nonpayable"},{"type":"function","name":"uplodeMoney","inputs":[],"outputs":[],"stateMutability":"payable"},{"type":"function","name":"withdowOwners","inputs":[{"name":"withdrawValueinWei","type":"uint256","internalType":"uint256"}],"outputs":[],"stateMutability":"nonpayable"},{"type":"function","name":"withdrawCompany","inputs":[{"name":"withdrawValueinWei","type":"uint256","internalType":"uint256"}],"outputs":[],"stateMutability":"nonpayable"},{"type":"event","name":"Approval","inputs":[{"name":"owner","type":"address","indexed":true,"internalType":"address"},{"name":"spender","type":"address","indexed":true,"internalType":"address"},{"name":"value","type":"uint256","indexed":false,"internalType":"uint256"}],"anonymous":false},{"type":"event","name":"OwnershipTransferred","inputs":[{"name":"previousOwner","type":"address","indexed":true,"internalType":"address"},{"name":"newOwner","type":"address","indexed":true,"internalType":"address"}],"anonymous":false},{"type":"event","name":"Transfer","inputs":[{"name":"from","type":"address","indexed":true,"internalType":"address"},{"name":"to","type":"address","indexed":true,"internalType":"address"},{"name":"value","type":"uint256","indexed":false,"internalType":"uint256"}],"anonymous":false},{"type":"error","name":"Coin__BurnMoreThanTheTokensInTheMarcatCap","inputs":[]},{"type":"error","name":"Coin__CompanyWantsToWithdrawMoreMoneyThanAllowed","inputs":[]},{"type":"error","name":"Coin__FailedToSendETH","inputs":[]},{"type":"error","name":"Coin__InsufficientETHInContract","inputs":[]},{"type":"error","name":"Coin__InsufficientTokens","inputs":[]},{"type":"error","name":"Coin__MustBeMoreThanZero","inputs":[]},{"type":"error","name":"Coin__NotAuthorized","inputs":[]},{"type":"error","name":"Coin__NotEnoughTokensAvailable","inputs":[]},{"type":"error","name":"Coin__ethBalanceMustBeMoreThanZero","inputs":[]},{"type":"error","name":"ERC20InsufficientAllowance","inputs":[{"name":"spender","type":"address","internalType":"address"},{"name":"allowance","type":"uint256","internalType":"uint256"},{"name":"needed","type":"uint256","internalType":"uint256"}]},{"type":"error","name":"ERC20InsufficientBalance","inputs":[{"name":"sender","type":"address","internalType":"address"},{"name":"balance","type":"uint256","internalType":"uint256"},{"name":"needed","type":"uint256","internalType":"uint256"}]},{"type":"error","name":"ERC20InvalidApprover","inputs":[{"name":"approver","type":"address","internalType":"address"}]},{"type":"error","name":"ERC20InvalidReceiver","inputs":[{"name":"receiver","type":"address","internalType":"address"}]},{"type":"error","name":"ERC20InvalidSender","inputs":[{"name":"sender","type":"address","internalType":"address"}]},{"type":"error","name":"ERC20InvalidSpender","inputs":[{"name":"spender","type":"address","internalType":"address"}]},{"type":"error","name":"OwnableInvalidOwner","inputs":[{"name":"owner","type":"address","internalType":"address"}]},{"type":"error","name":"OwnableUnauthorizedAccount","inputs":[{"name":"account","type":"address","internalType":"address"}]},{"type":"error","name":"ReentrancyGuardReentrantCall","inputs":[]}],"bytecode":{"object":"0x6101206040525f60088190556009819055600c805460ff19908116601417909155600d829055600e91909155600f80549091166001179055348015610042575f5ffd5b50604051611fdc380380611fdc83398101604081905261006191610392565b306040518060400160405280600f81526020016e2334bc32b229bab838363ca1b7b4b760891b8152506040518060400160405280600381526020016246534360e81b81525081600390816100b591906104a2565b5060046100c282826104a2565b5050506001600160a01b0381166100f357604051631e4fbdf760e01b81525f60048201526024015b60405180910390fd5b6100fc816101b8565b506001600655336080526001600160a01b0386811661010052600c805460ff80891660ff199283161790925585821660c0526007805492881692909116919091179055821660a052600b81905561016f30610155601290565b61016090600a610655565b61016a908a61066a565b610209565b60025461017e6012600a610655565b600b5461018b919061066a565b6101959190610681565b600a55600254600b546101a8919061066a565b60e052506106b395505050505050565b600580546001600160a01b038381166001600160a01b0319831681179093556040519116919082907f8be0079c531659141344cd1fd0a4f28419497f9722a3daafe3b4186f6b6457e0905f90a35050565b6001600160a01b0382166102325760405163ec442f0560e01b81525f60048201526024016100ea565b61023d5f8383610241565b5050565b6001600160a01b03831661026b578060025f82825461026091906106a0565b909155506102db9050565b6001600160a01b0383165f90815260208190526040902054818110156102bd5760405163391434e360e21b81526001600160a01b038516600482015260248101829052604481018390526064016100ea565b6001600160a01b0384165f9081526020819052604090209082900390555b6001600160a01b0382166102f757600280548290039055610315565b6001600160a01b0382165f9081526020819052604090208054820190555b816001600160a01b0316836001600160a01b03167fddf252ad1be2c89b69c2b068fc378daa952ba7f163c4a11628f55a4df523b3ef8360405161035a91815260200190565b60405180910390a3505050565b80516001600160a01b038116811461037d575f5ffd5b919050565b805160ff8116811461037d575f5ffd5b5f5f5f5f5f5f5f60e0888a0312156103a8575f5ffd5b875196506103b860208901610367565b95506103c660408901610382565b94506103d460608901610382565b93506103e260808901610382565b92506103f060a08901610367565b91505f60c089015190508091505092959891949750929550565b634e487b7160e01b5f52604160045260245ffd5b600181811c9082168061043257607f821691505b60208210810361045057634e487b7160e01b5f52602260045260245ffd5b50919050565b601f82111561049d57805f5260205f20601f840160051c8101602085101561047b5750805b601f840160051c820191505b8181101561049a575f8155600101610487565b50505b505050565b81516001600160401b038111156104bb576104bb61040a565b6104cf816104c9845461041e565b84610456565b6020601f821160018114610501575f83156104ea5750848201515b5f19600385901b1c1916600184901b17845561049a565b5f84815260208120601f198516915b828110156105305787850151825560209485019460019092019101610510565b508482101561054d57868401515f19600387901b60f8161c191681555b50505050600190811b01905550565b634e487b7160e01b5f52601160045260245ffd5b6001815b60018411156105ab5780850481111561058f5761058f61055c565b600184161561059d57908102905b60019390931c928002610574565b935093915050565b5f826105c15750600161064f565b816105cd57505f61064f565b81600181146105e357600281146105ed57610609565b600191505061064f565b60ff8411156105fe576105fe61055c565b50506001821b61064f565b5060208310610133831016604e8410600b841016171561062c575081810a61064f565b6106385f198484610570565b805f190482111561064b5761064b61055c565b0290505b92915050565b5f61066360ff8416836105b3565b9392505050565b808202811582820484141761064f5761064f61055c565b5f8261069b57634e487b7160e01b5f52601260045260245ffd5b500490565b8082018082111561064f5761064f61055c565b60805160a05160c05160e051610100516118836107595f395f8181610609015281816106630152818161087b01528181610b9a0152610d4201525f81816109f901528181610c0001528181610ddb01526112d501525f8181610776015281816109240152610b2201525f81816107470152818161079a015281816108480152610d0f01525f81816106c6015281816106fd015281816108160152610cdd01526118835ff3fe6080604052600436106101db575f3560e01c8063715018a6116100fd578063a9059cbb11610092578063dd62ed3e11610062578063dd62ed3e146104d9578063deba98851461051d578063e0f5018a14610252578063f2fde38b14610531575f5ffd5b8063a9059cbb14610487578063d0febe4c146104a6578063d7b571b8146104ae578063dc87fe7e146104c2575f5ffd5b80638da5cb5b116100cd5780638da5cb5b1461041957806390825c281461044057806395d89b4114610454578063a0712d6814610468575f5ffd5b8063715018a6146103ca5780637c131dea146103de5780637ec8bc20146103fd5780638a96522d14610411575f5ffd5b806323b872dd1161017357806342966c681161014357806342966c6814610339578063476f0d38146103585780636c11bcd31461037757806370a0823114610396575f5ffd5b806323b872dd146102d75780632545a118146102f6578063313ce5671461030a57806336f3246314610325575f5ffd5b80630b6fc239116101ae5780630b6fc239146102645780630ba5bc5014610285578063171cbf69146102a457806318160ddd146102c3575f5ffd5b806303253e25146101df57806306fdde0314610202578063095ea7b3146102235780630aea212814610252575b5f5ffd5b3480156101ea575f5ffd5b506008545b6040519081526020015b60405180910390f35b34801561020d575f5ffd5b50610216610550565b6040516101f99190611497565b34801561022e575f5ffd5b5061024261023d3660046114e2565b6105e0565b60405190151581526020016101f9565b34801561025d575f5ffd5b50476101ef565b34801561026f575f5ffd5b5061028361027e36600461150a565b6105fe565b005b348015610290575f5ffd5b5061028361029f366004611521565b6106a1565b3480156102af575f5ffd5b506102836102be36600461150a565b6106bc565b3480156102ce575f5ffd5b506002546101ef565b3480156102e2575f5ffd5b506102426102f1366004611547565b6107e8565b348015610301575f5ffd5b50600d546101ef565b348015610315575f5ffd5b50604051601281526020016101f9565b348015610330575f5ffd5b506009546101ef565b348015610344575f5ffd5b5061028361035336600461150a565b61080b565b348015610363575f5ffd5b50610283610372366004611581565b610914565b348015610382575f5ffd5b5061028361039136600461150a565b610979565b3480156103a1575f5ffd5b506101ef6103b03660046115a1565b6001600160a01b03165f9081526020819052604090205490565b3480156103d5575f5ffd5b50610283610aff565b3480156103e9575f5ffd5b506102836103f8366004611581565b610b12565b348015610408575f5ffd5b50600e546101ef565b610283610b8f565b348015610424575f5ffd5b506005546040516001600160a01b0390911681526020016101f9565b34801561044b575f5ffd5b506101ef610cad565b34801561045f575f5ffd5b50610216610cc3565b348015610473575f5ffd5b5061028361048236600461150a565b610cd2565b348015610492575f5ffd5b506102426104a13660046114e2565b610dab565b610283610db8565b3480156104b9575f5ffd5b50600a546101ef565b3480156104cd575f5ffd5b50600c5460ff166101ef565b3480156104e4575f5ffd5b506101ef6104f33660046115ba565b6001600160a01b039182165f90815260016020908152604080832093909416825291909152205490565b348015610528575f5ffd5b506101ef610e71565b34801561053c575f5ffd5b5061028361054b3660046115a1565b610e91565b60606003805461055f906115eb565b80601f016020809104026020016040519081016040528092919081815260200182805461058b906115eb565b80156105d65780601f106105ad576101008083540402835291602001916105d6565b820191905f5260205f20905b8154815290600101906020018083116105b957829003601f168201915b5050505050905090565b5f336105ed818585610ed0565b60019150505b92915050565b919050565b336001600160a01b037f0000000000000000000000000000000000000000000000000000000000000000161461064757604051633e5a022160e01b815260040160405180910390fd5b600f5460ff161561069e57600d54600c5461068791839160ff167f0000000000000000000000000000000000000000000000000000000000000000610ee2565b80600d5f8282546106989190611637565b90915550505b50565b6106a9610fba565b600f805460ff1916911515919091179055565b6001600160a01b037f000000000000000000000000000000000000000000000000000000000000000016330361073d5760085460075461072191839160ff167f0000000000000000000000000000000000000000000000000000000000000000610ee2565b8060085f828254610732919061165e565b9091555061069e9050565b6001600160a01b037f00000000000000000000000000000000000000000000000000000000000000001633036107cf576107be816009547f000000000000000000000000000000000000000000000000000000000000000060ff167f0000000000000000000000000000000000000000000000000000000000000000610ee2565b8060095f828254610732919061165e565b604051633e5a022160e01b815260040160405180910390fd5b5f336107f5858285610fe7565b61080085858561105c565b506001949350505050565b336001600160a01b037f000000000000000000000000000000000000000000000000000000000000000016148061086a5750336001600160a01b037f000000000000000000000000000000000000000000000000000000000000000016145b8061089d5750336001600160a01b037f000000000000000000000000000000000000000000000000000000000000000016145b6108ba57604051633e5a022160e01b815260040160405180910390fd5b5f81116108da5760405163b5b9a29d60e01b815260040160405180910390fd5b600e546002546108ea9190611671565b81111561090a57604051638e104be760e01b815260040160405180910390fd5b61069e30826110b9565b61091c610fba565b600c546064907f00000000000000000000000000000000000000000000000000000000000000009061095290849060ff16611684565b61095c9190611684565b60ff16101561069e576007805460ff831660ff1990911617905550565b6109816110f1565b5f81116109a15760405163b5b9a29d60e01b815260040160405180910390fd5b335f90815260208190526040902054818110156109d1576040516319b99e4b60e11b815260040160405180910390fd5b5f82600e546109df60025490565b6109e99190611671565b6109f3919061165e565b610a1d907f00000000000000000000000000000000000000000000000000000000000000006116b1565b90505f81600b54610a2b4790565b610a35919061165e565b610a3f9190611671565b905080471015610a62576040516341f8aa4b60e11b815260040160405180910390fd5b610a6d33308661105c565b6040515f90339083908381818185875af1925050503d805f8114610aac576040519150601f19603f3d011682016040523d82523d5f602084013e610ab1565b606091505b5050905080610ad257604051620110f760ec1b815260040160405180910390fd5b84600e5f828254610ae39190611671565b90915550610af1905061111b565b5050505061069e6001600655565b610b07610fba565b610b105f61115e565b565b610b1a610fba565b6007546064907f000000000000000000000000000000000000000000000000000000000000000090610b4f9060ff1684611684565b610b599190611684565b60ff161015610b7657600c805460ff831660ff1990911617905550565b6040516332297daf60e01b815260040160405180910390fd5b336001600160a01b037f00000000000000000000000000000000000000000000000000000000000000001614610bd857604051633e5a022160e01b815260040160405180910390fd5b610be06110f1565b5f610be9610e71565b90505f600b5482610bfa919061165e565b610c24907f00000000000000000000000000000000000000000000000000000000000000006116b1565b9050610c4a81600e54610c3660025490565b610c409190611671565b6103539190611671565b610c543483611671565b600b54610c6190346116c4565b610c6b91906116b1565b600b5f828254610c7b919061165e565b9250508190555034600d5f828254610c9391906116db565b90915550610ca1905061111b565b5050610b106001600655565b5f600a54600e54610cbe91906116c4565b905090565b60606004805461055f906115eb565b336001600160a01b037f0000000000000000000000000000000000000000000000000000000000000000161480610d315750336001600160a01b037f000000000000000000000000000000000000000000000000000000000000000016145b80610d645750336001600160a01b037f000000000000000000000000000000000000000000000000000000000000000016145b610d8157604051633e5a022160e01b815260040160405180910390fd5b5f8111610da15760405163b5b9a29d60e01b815260040160405180910390fd5b61069e30826111af565b5f336105ed81858561105c565b610dc06110f1565b5f600b54610dcb4790565b610dd5919061165e565b610dff907f00000000000000000000000000000000000000000000000000000000000000006116b1565b90505f81600e54610e0f60025490565b610e199190611671565b610e239190611671565b305f90815260208190526040902054909150811115610e5557604051636562594760e01b815260040160405180910390fd5b610e6030338361105c565b80600e5f828254610c93919061165e565b5f47806105f95760405163b5b9a29d60e01b815260040160405180910390fd5b610e99610fba565b6001600160a01b038116610ec757604051631e4fbdf760e01b81525f60048201526024015b60405180910390fd5b61069e8161115e565b610edd83838360016111e3565b505050565b610eea6110f1565b475f6064610ef88584611701565b610f029190611730565b905080610f0f8688611637565b1315610f2e576040516341f8aa4b60e11b815260040160405180910390fd5b5f836001600160a01b0316876040515f6040518083038185875af1925050503d805f8114610f77576040519150601f19603f3d011682016040523d82523d5f602084013e610f7c565b606091505b5050905080610f9e576040516341f8aa4b60e11b815260040160405180910390fd5b610fa7876112b5565b505050610fb46001600655565b50505050565b6005546001600160a01b03163314610b105760405163118cdaa760e01b8152336004820152602401610ebe565b6001600160a01b038381165f908152600160209081526040808320938616835292905220545f198114610fb4578181101561104e57604051637dc7a0d960e11b81526001600160a01b03841660048201526024810182905260448101839052606401610ebe565b610fb484848484035f6111e3565b6001600160a01b03831661108557604051634b637e8f60e11b81525f6004820152602401610ebe565b6001600160a01b0382166110ae5760405163ec442f0560e01b81525f6004820152602401610ebe565b610edd838383611371565b6001600160a01b0382166110e257604051634b637e8f60e11b81525f6004820152602401610ebe565b6110ed825f83611371565b5050565b60026006540361111457604051633ee5aeb560e01b815260040160405180910390fd5b6002600655565b600e5460025461112b9190611671565b6111376012600a61183f565b47600b54611145919061165e565b61114f91906116c4565b61115991906116b1565b600a55565b600580546001600160a01b038381166001600160a01b0319831681179093556040519116919082907f8be0079c531659141344cd1fd0a4f28419497f9722a3daafe3b4186f6b6457e0905f90a35050565b6001600160a01b0382166111d85760405163ec442f0560e01b81525f6004820152602401610ebe565b6110ed5f8383611371565b6001600160a01b03841661120c5760405163e602df0560e01b81525f6004820152602401610ebe565b6001600160a01b03831661123557604051634a1406b160e11b81525f6004820152602401610ebe565b6001600160a01b038085165f9081526001602090815260408083209387168352929052208290558015610fb457826001600160a01b0316846001600160a01b03167f8c5be1e5ebec7d5bd14f71427d1e84f3dd0314c0f7b2291e5b200ac8c7c3b925846040516112a791815260200190565b60405180910390a350505050565b5f6112be610e71565b90505f600b54826112cf919061165e565b6112f9907f00000000000000000000000000000000000000000000000000000000000000006116b1565b90505f600e5461130860025490565b6113129190611671565b61131c9083611671565b905061132781610cd2565b5f611332858561165e565b600b5461133f90876116c4565b61134991906116b1565b905080600b5f82825461135c9190611671565b9091555061136a905061111b565b5050505050565b6001600160a01b03831661139b578060025f828254611390919061165e565b9091555061140b9050565b6001600160a01b0383165f90815260208190526040902054818110156113ed5760405163391434e360e21b81526001600160a01b03851660048201526024810182905260448101839052606401610ebe565b6001600160a01b0384165f9081526020819052604090209082900390555b6001600160a01b03821661142757600280548290039055611445565b6001600160a01b0382165f9081526020819052604090208054820190555b816001600160a01b0316836001600160a01b03167fddf252ad1be2c89b69c2b068fc378daa952ba7f163c4a11628f55a4df523b3ef8360405161148a91815260200190565b60405180910390a3505050565b602081525f82518060208401528060208501604085015e5f604082850101526040601f19601f83011684010191505092915050565b80356001600160a01b03811681146105f9575f5ffd5b5f5f604083850312156114f3575f5ffd5b6114fc836114cc565b946020939093013593505050565b5f6020828403121561151a575f5ffd5b5035919050565b5f60208284031215611531575f5ffd5b81358015158114611540575f5ffd5b9392505050565b5f5f5f60608486031215611559575f5ffd5b611562846114cc565b9250611570602085016114cc565b929592945050506040919091013590565b5f60208284031215611591575f5ffd5b813560ff81168114611540575f5ffd5b5f602082840312156115b1575f5ffd5b611540826114cc565b5f5f604083850312156115cb575f5ffd5b6115d4836114cc565b91506115e2602084016114cc565b90509250929050565b600181811c908216806115ff57607f821691505b60208210810361161d57634e487b7160e01b5f52602260045260245ffd5b50919050565b634e487b7160e01b5f52601160045260245ffd5b8082018281125f83128015821682158216171561165657611656611623565b505092915050565b808201808211156105f3576105f3611623565b818103818111156105f3576105f3611623565b60ff81811683821601908111156105f3576105f3611623565b634e487b7160e01b5f52601260045260245ffd5b5f826116bf576116bf61169d565b500490565b80820281158282048414176105f3576105f3611623565b8181035f8312801583831316838312821617156116fa576116fa611623565b5092915050565b8082025f8212600160ff1b8414161561171c5761171c611623565b81810583148215176105f3576105f3611623565b5f8261173e5761173e61169d565b600160ff1b82145f198414161561175757611757611623565b500590565b6001815b60018411156117975780850481111561177b5761177b611623565b600184161561178957908102905b60019390931c928002611760565b935093915050565b5f826117ad575060016105f3565b816117b957505f6105f3565b81600181146117cf57600281146117d9576117f5565b60019150506105f3565b60ff8411156117ea576117ea611623565b50506001821b6105f3565b5060208310610133831016604e8410600b8410161715611818575081810a6105f3565b6118245f19848461175c565b805f190482111561183757611837611623565b029392505050565b5f61154060ff84168361179f56fea26469706673582212209a14203a9a6ca2dd4364f8c21c200da56d5d2a57a04d005d33aeee056c299bd964736f6c634300081b0033","linkReferences":{}},"methodIdentifiers":{"allowance(address,address)":"dd62ed3e","approve(address,uint256)":"095ea7b3","balanceOf(address)":"70a08231","burn(uint256)":"42966c68","buyTokens()":"d0febe4c","decimals()":"313ce567","geNumberOfTokensInTheMarcetCapp()":"7ec8bc20","getContractWeiBalance()":"e0f5018a","getMarketCap()":"90825c28","getValueOfOneTokenInWei()":"d7b571b8","getcompanyAllreadyWithdrawalThisMany()":"2545a118","getcompanyWithdrawalPercentage()":"dc87fe7e","getethBalance()":"0aea2128","getethBalanceNotZero()":"deba9885","getownerAllreadyWithdrawalThisMany()":"03253e25","getsecondownerAllreadyWithdrawalThisMany()":"36f32463","mint(uint256)":"a0712d68","name()":"06fdde03","owner()":"8da5cb5b","renounceOwnership()":"715018a6","sellTokens(uint256)":"6c11bcd3","setCompanyCanWithdraw(bool)":"0ba5bc50","setcompanyWithdrawalPercentage(uint8)":"7c131dea","setoWNERWITHDRAWALPERCENTAGE(uint8)":"476f0d38","symbol()":"95d89b41","totalSupply()":"18160ddd","transfer(address,uint256)":"a9059cbb","transferFrom(address,address,uint256)":"23b872dd","transferOwnership(address)":"f2fde38b","uplodeMoney()":"8a96522d","withdowOwners(uint256)":"171cbf69","withdrawCompany(uint256)":"0b6fc239"},"id":27}