{"abi":[{"type":"constructor","inputs":[{"name":"_numberOfTokens","type":"uint256","internalType":"uint256"},{"name":"_company","type":"address","internalType":"address"},{"name":"_companyWithdrawalPercentage","type":"uint8","internalType":"uint8"},{"name":"_i_OWNERWITHDRAWALPERCENTAGE","type":"uint8","internalType":"uint8"},{"name":"_i_SECONDOWNERWITHDRAWALPERCENTAGE","type":"uint8","internalType":"uint8"},{"name":"_i_secondowner","type":"address","internalType":"address"},{"name":"_i_numberOfVirtualWei","type":"uint256","internalType":"uint256"}],"stateMutability":"nonpayable"},{"type":"function","name":"allowance","inputs":[{"name":"owner","type":"address","internalType":"address"},{"name":"spender","type":"address","internalType":"address"}],"outputs":[{"name":"","type":"uint256","internalType":"uint256"}],"stateMutability":"view"},{"type":"function","name":"approve","inputs":[{"name":"spender","type":"address","internalType":"address"},{"name":"value","type":"uint256","internalType":"uint256"}],"outputs":[{"name":"","type":"bool","internalType":"bool"}],"stateMutability":"nonpayable"},{"type":"function","name":"balanceOf","inputs":[{"name":"account","type":"address","internalType":"address"}],"outputs":[{"name":"","type":"uint256","internalType":"uint256"}],"stateMutability":"view"},{"type":"function","name":"burn","inputs":[{"name":"_numberOfTokens","type":"uint256","internalType":"uint256"}],"outputs":[],"stateMutability":"nonpayable"},{"type":"function","name":"buyTokens","inputs":[{"name":"wBTCAmount","type":"uint256","internalType":"uint256"}],"outputs":[],"stateMutability":"nonpayable"},{"type":"function","name":"decimals","inputs":[],"outputs":[{"name":"","type":"uint8","internalType":"uint8"}],"stateMutability":"view"},{"type":"function","name":"geNumberOfTokensInTheMarcetCapp","inputs":[],"outputs":[{"name":"","type":"uint256","internalType":"uint256"}],"stateMutability":"view"},{"type":"function","name":"getMarketCap","inputs":[],"outputs":[{"name":"","type":"uint256","internalType":"uint256"}],"stateMutability":"view"},{"type":"function","name":"getValueOfOneTokenInWei","inputs":[],"outputs":[{"name":"","type":"uint256","internalType":"uint256"}],"stateMutability":"view"},{"type":"function","name":"getcompanyAllreadyWithdrawalThisMany","inputs":[],"outputs":[{"name":"","type":"int256","internalType":"int256"}],"stateMutability":"view"},{"type":"function","name":"getcompanyWithdrawalPercentage","inputs":[],"outputs":[{"name":"","type":"uint256","internalType":"uint256"}],"stateMutability":"view"},{"type":"function","name":"getownerAllreadyWithdrawalThisMany","inputs":[],"outputs":[{"name":"","type":"uint256","internalType":"uint256"}],"stateMutability":"view"},{"type":"function","name":"getsecondownerAllreadyWithdrawalThisMany","inputs":[],"outputs":[{"name":"","type":"uint256","internalType":"uint256"}],"stateMutability":"view"},{"type":"function","name":"getwBTCBalance","inputs":[],"outputs":[{"name":"","type":"uint256","internalType":"uint256"}],"stateMutability":"view"},{"type":"function","name":"getwBTCBalanceNotZero","inputs":[],"outputs":[{"name":"","type":"uint256","internalType":"uint256"}],"stateMutability":"view"},{"type":"function","name":"mint","inputs":[{"name":"_numberOfTokens","type":"uint256","internalType":"uint256"}],"outputs":[],"stateMutability":"nonpayable"},{"type":"function","name":"name","inputs":[],"outputs":[{"name":"","type":"string","internalType":"string"}],"stateMutability":"view"},{"type":"function","name":"owner","inputs":[],"outputs":[{"name":"","type":"address","internalType":"address"}],"stateMutability":"view"},{"type":"function","name":"renounceOwnership","inputs":[],"outputs":[],"stateMutability":"nonpayable"},{"type":"function","name":"sellTokens","inputs":[{"name":"_tokenAmount","type":"uint256","internalType":"uint256"}],"outputs":[],"stateMutability":"nonpayable"},{"type":"function","name":"setCompanyCanWithdraw","inputs":[{"name":"_companyCanWithdraw","type":"bool","internalType":"bool"}],"outputs":[],"stateMutability":"nonpayable"},{"type":"function","name":"setcompanyWithdrawalPercentage","inputs":[{"name":"newcompanyWithdrawalPercentage","type":"uint8","internalType":"uint8"}],"outputs":[],"stateMutability":"nonpayable"},{"type":"function","name":"symbol","inputs":[],"outputs":[{"name":"","type":"string","internalType":"string"}],"stateMutability":"view"},{"type":"function","name":"totalSupply","inputs":[],"outputs":[{"name":"","type":"uint256","internalType":"uint256"}],"stateMutability":"view"},{"type":"function","name":"transfer","inputs":[{"name":"to","type":"address","internalType":"address"},{"name":"value","type":"uint256","internalType":"uint256"}],"outputs":[{"name":"","type":"bool","internalType":"bool"}],"stateMutability":"nonpayable"},{"type":"function","name":"transferFrom","inputs":[{"name":"from","type":"address","internalType":"address"},{"name":"to","type":"address","internalType":"address"},{"name":"value","type":"uint256","internalType":"uint256"}],"outputs":[{"name":"","type":"bool","internalType":"bool"}],"stateMutability":"nonpayable"},{"type":"function","name":"transferOwnership","inputs":[{"name":"newOwner","type":"address","internalType":"address"}],"outputs":[],"stateMutability":"nonpayable"},{"type":"function","name":"uplodeMoney","inputs":[{"name":"wBTCAmount","type":"uint256","internalType":"uint256"}],"outputs":[],"stateMutability":"nonpayable"},{"type":"function","name":"wBTC","inputs":[],"outputs":[{"name":"","type":"address","internalType":"contract IERC20"}],"stateMutability":"view"},{"type":"function","name":"withdowOwners","inputs":[{"name":"withdrawValueinWei","type":"uint256","internalType":"uint256"}],"outputs":[],"stateMutability":"nonpayable"},{"type":"function","name":"withdrawCompany","inputs":[{"name":"withdrawValueinWei","type":"uint256","internalType":"uint256"}],"outputs":[],"stateMutability":"nonpayable"},{"type":"event","name":"Approval","inputs":[{"name":"owner","type":"address","indexed":true,"internalType":"address"},{"name":"spender","type":"address","indexed":true,"internalType":"address"},{"name":"value","type":"uint256","indexed":false,"internalType":"uint256"}],"anonymous":false},{"type":"event","name":"OwnershipTransferred","inputs":[{"name":"previousOwner","type":"address","indexed":true,"internalType":"address"},{"name":"newOwner","type":"address","indexed":true,"internalType":"address"}],"anonymous":false},{"type":"event","name":"TokensBought","inputs":[{"name":"buyer","type":"address","indexed":true,"internalType":"address"},{"name":"wBTCAmount","type":"uint256","indexed":false,"internalType":"uint256"},{"name":"tokenAmount","type":"uint256","indexed":false,"internalType":"uint256"}],"anonymous":false},{"type":"event","name":"TokensSold","inputs":[{"name":"seller","type":"address","indexed":true,"internalType":"address"},{"name":"tokenAmount","type":"uint256","indexed":false,"internalType":"uint256"},{"name":"wBTCAmount","type":"uint256","indexed":false,"internalType":"uint256"}],"anonymous":false},{"type":"event","name":"Transfer","inputs":[{"name":"from","type":"address","indexed":true,"internalType":"address"},{"name":"to","type":"address","indexed":true,"internalType":"address"},{"name":"value","type":"uint256","indexed":false,"internalType":"uint256"}],"anonymous":false},{"type":"event","name":"Withdrawal","inputs":[{"name":"account","type":"address","indexed":true,"internalType":"address"},{"name":"amount","type":"uint256","indexed":false,"internalType":"uint256"}],"anonymous":false},{"type":"error","name":"Coin__BurnMoreThanTheTokensInTheMarcatCap","inputs":[]},{"type":"error","name":"Coin__CompanyWantsToWithdrawMoreMoneyThanAllowed","inputs":[]},{"type":"error","name":"Coin__FailedToReceiveWBTC","inputs":[]},{"type":"error","name":"Coin__FailedToSendWBTC","inputs":[]},{"type":"error","name":"Coin__InsufficientTokens","inputs":[]},{"type":"error","name":"Coin__InsufficientWBTC","inputs":[]},{"type":"error","name":"Coin__InsufficientWBTCInContract","inputs":[]},{"type":"error","name":"Coin__MustBeMoreThanZero","inputs":[]},{"type":"error","name":"Coin__NotAuthorized","inputs":[]},{"type":"error","name":"Coin__NotEnoughTokensAvailable","inputs":[]},{"type":"error","name":"Coin__WBTCTransferFailed","inputs":[]},{"type":"error","name":"ERC20InsufficientAllowance","inputs":[{"name":"spender","type":"address","internalType":"address"},{"name":"allowance","type":"uint256","internalType":"uint256"},{"name":"needed","type":"uint256","internalType":"uint256"}]},{"type":"error","name":"ERC20InsufficientBalance","inputs":[{"name":"sender","type":"address","internalType":"address"},{"name":"balance","type":"uint256","internalType":"uint256"},{"name":"needed","type":"uint256","internalType":"uint256"}]},{"type":"error","name":"ERC20InvalidApprover","inputs":[{"name":"approver","type":"address","internalType":"address"}]},{"type":"error","name":"ERC20InvalidReceiver","inputs":[{"name":"receiver","type":"address","internalType":"address"}]},{"type":"error","name":"ERC20InvalidSender","inputs":[{"name":"sender","type":"address","internalType":"address"}]},{"type":"error","name":"ERC20InvalidSpender","inputs":[{"name":"spender","type":"address","internalType":"address"}]},{"type":"error","name":"OwnableInvalidOwner","inputs":[{"name":"owner","type":"address","internalType":"address"}]},{"type":"error","name":"OwnableUnauthorizedAccount","inputs":[{"name":"account","type":"address","internalType":"address"}]},{"type":"error","name":"ReentrancyGuardReentrantCall","inputs":[]}],"bytecode":{"object":"0x6101406040525f60078190556008819055600b805460ff19908116601417909155600c829055600d91909155600e80549091166001179055348015610042575f5ffd5b5060405161250f38038061250f8339810160408190526100619161037d565b306040518060400160405280600b81526020016a43727970746f53746f636b60a81b81525060405180604001604052806002815260200161435360f01b81525081600390816100b0919061048d565b5060046100bd828261048d565b5050506001600160a01b0381166100ee57604051631e4fbdf760e01b81525f60048201526024015b60405180910390fd5b6100f7816101a3565b506001600655336080526001600160a01b0386811661012052600b805460ff191660ff8881169190911790915584811660e052851660a052821660c052600a81905561015f30610145601290565b61015090600a610640565b61015a908a610655565b6101f4565b60025461016e6012600a610640565b6101789083610655565b610182919061066c565b6009556002546101929082610655565b610100525061069e95505050505050565b600580546001600160a01b038381166001600160a01b0319831681179093556040519116919082907f8be0079c531659141344cd1fd0a4f28419497f9722a3daafe3b4186f6b6457e0905f90a35050565b6001600160a01b03821661021d5760405163ec442f0560e01b81525f60048201526024016100e5565b6102285f838361022c565b5050565b6001600160a01b038316610256578060025f82825461024b919061068b565b909155506102c69050565b6001600160a01b0383165f90815260208190526040902054818110156102a85760405163391434e360e21b81526001600160a01b038516600482015260248101829052604481018390526064016100e5565b6001600160a01b0384165f9081526020819052604090209082900390555b6001600160a01b0382166102e257600280548290039055610300565b6001600160a01b0382165f9081526020819052604090208054820190555b816001600160a01b0316836001600160a01b03167fddf252ad1be2c89b69c2b068fc378daa952ba7f163c4a11628f55a4df523b3ef8360405161034591815260200190565b60405180910390a3505050565b80516001600160a01b0381168114610368575f5ffd5b919050565b805160ff81168114610368575f5ffd5b5f5f5f5f5f5f5f60e0888a031215610393575f5ffd5b875196506103a360208901610352565b95506103b16040890161036d565b94506103bf6060890161036d565b93506103cd6080890161036d565b92506103db60a08901610352565b91505f60c089015190508091505092959891949750929550565b634e487b7160e01b5f52604160045260245ffd5b600181811c9082168061041d57607f821691505b60208210810361043b57634e487b7160e01b5f52602260045260245ffd5b50919050565b601f82111561048857805f5260205f20601f840160051c810160208510156104665750805b601f840160051c820191505b81811015610485575f8155600101610472565b50505b505050565b81516001600160401b038111156104a6576104a66103f5565b6104ba816104b48454610409565b84610441565b6020601f8211600181146104ec575f83156104d55750848201515b5f19600385901b1c1916600184901b178455610485565b5f84815260208120601f198516915b8281101561051b57878501518255602094850194600190920191016104fb565b508482101561053857868401515f19600387901b60f8161c191681555b50505050600190811b01905550565b634e487b7160e01b5f52601160045260245ffd5b6001815b60018411156105965780850481111561057a5761057a610547565b600184161561058857908102905b60019390931c92800261055f565b935093915050565b5f826105ac5750600161063a565b816105b857505f61063a565b81600181146105ce57600281146105d8576105f4565b600191505061063a565b60ff8411156105e9576105e9610547565b50506001821b61063a565b5060208310610133831016604e8410600b8410161715610617575081810a61063a565b6106235f19848461055b565b805f190482111561063657610636610547565b0290505b92915050565b5f61064e60ff84168361059e565b9392505050565b808202811582820484141761063a5761063a610547565b5f8261068657634e487b7160e01b5f52601260045260245ffd5b500490565b8082018082111561063a5761063a610547565b60805160a05160c05160e0516101005161012051611dba6107555f395f81816104d30152818161052d01528181610b8c01528181610f8f015261101001525f818161087b015281816108d801528181610cb00152818161174b015261179201525f81816106860152610e7601525f8181610657015281816106aa01528181610b590152610f5c01525f81816105f40152610e9a01525f81816105c50152818161061801528181610b270152610f2a0152611dba5ff3fe608060405234801561000f575f5ffd5b50600436106101dc575f3560e01c806370a0823111610109578063a0712d681161009e578063dc87fe7e1161006e578063dc87fe7e146103c1578063dd62ed3e146103cc578063f2fde38b14610404578063f3836a4314610417575f5ffd5b8063a0712d6814610380578063a9059cbb14610393578063ba8e0b5f146103a6578063d7b571b8146103b9575f5ffd5b80638da5cb5b116100d95780638da5cb5b1461033057806390825c281461035557806395d89b411461035d5780639b45293114610365575f5ffd5b806370a08231146102e5578063715018a61461030d5780637c131dea146103155780637ec8bc2014610328575f5ffd5b806323b872dd1161017f5780633610724e1161014f5780633610724e146102a457806336f32463146102b757806342966c68146102bf5780636c11bcd3146102d2575f5ffd5b806323b872dd146102725780632545a118146102855780632c9b75ec1461028d578063313ce56714610295575f5ffd5b80630b6fc239116101ba5780630b6fc2391461022f5780630ba5bc5014610244578063171cbf691461025757806318160ddd1461026a575f5ffd5b806303253e25146101e057806306fdde03146101f7578063095ea7b31461020c575b5f5ffd5b6007545b6040519081526020015b60405180910390f35b6101ff61041f565b6040516101ee9190611979565b61021f61021a3660046119c4565b6104af565b60405190151581526020016101ee565b61024261023d3660046119ec565b6104c8565b005b610242610252366004611a10565b6105a0565b6102426102653660046119ec565b6105bb565b6002546101e4565b61021f610280366004611a32565b6106f8565b600c546101e4565b6101e461071b565b604051601281526020016101ee565b6102426102b23660046119ec565b610793565b6008546101e4565b6102426102cd3660046119ec565b610b1c565b6102426102e03660046119ec565b610c25565b6101e46102f3366004611a6c565b6001600160a01b03165f9081526020819052604090205490565b610242610e57565b610242610323366004611a85565b610e6a565b600d546101e4565b6005546001600160a01b03165b6040516001600160a01b0390911681526020016101ee565b6101e4610eff565b6101ff610f10565b61033d735fc8d32690cc91d4c39d9d3abcbd16989f87570781565b61024261038e3660046119ec565b610f1f565b61021f6103a13660046119c4565b610ff8565b6102426103b43660046119ec565b611005565b6009546101e4565b600b5460ff166101e4565b6101e46103da366004611aa5565b6001600160a01b039182165f90815260016020908152604080832093909416825291909152205490565b610242610412366004611a6c565b61125b565b6101e4611295565b60606003805461042e90611ad6565b80601f016020809104026020016040519081016040528092919081815260200182805461045a90611ad6565b80156104a55780601f1061047c576101008083540402835291602001916104a5565b820191905f5260205f20905b81548152906001019060200180831161048857829003601f168201915b5050505050905090565b5f336104bc8185856112c6565b60019150505b92915050565b336001600160a01b037f0000000000000000000000000000000000000000000000000000000000000000161461051157604051633e5a022160e01b815260040160405180910390fd5b600e5460ff161561059d57600c54600b5461055191839160ff167f00000000000000000000000000000000000000000000000000000000000000006112d8565b80600c5f8282546105629190611b22565b909155505060405181815233907f7fcf532c15f0a6db0bd6d0e038bea71d30d808c7d98cb3bf7268a95bf5081b659060200160405180910390a25b50565b6105a86113ee565b600e805460ff1916911515919091179055565b6001600160a01b037f000000000000000000000000000000000000000000000000000000000000000016330361064d5761063c816007547f000000000000000000000000000000000000000000000000000000000000000060ff167f00000000000000000000000000000000000000000000000000000000000000006112d8565b8060075f8282546105629190611b49565b6001600160a01b037f00000000000000000000000000000000000000000000000000000000000000001633036106df576106ce816008547f000000000000000000000000000000000000000000000000000000000000000060ff167f00000000000000000000000000000000000000000000000000000000000000006112d8565b8060085f8282546105629190611b49565b604051633e5a022160e01b815260040160405180910390fd5b5f3361070585828561141b565b610710858585611490565b506001949350505050565b6040516370a0823160e01b81523060048201525f90735fc8d32690cc91d4c39d9d3abcbd16989f875707906370a0823190602401602060405180830381865afa15801561076a573d5f5f3e3d5ffd5b505050506040513d601f19601f8201168201806040525081019061078e9190611b5c565b905090565b61079b6114ed565b806040516370a0823160e01b81523360048201525f90735fc8d32690cc91d4c39d9d3abcbd16989f875707906370a0823190602401602060405180830381865afa1580156107eb573d5f5f3e3d5ffd5b505050506040513d601f19601f8201168201806040525081019061080f9190611b5c565b905081811015610832576040516314631a4560e11b815260040160405180910390fd5b5f8061084061271086611b87565b61084a9086611b9a565b90505f600a54126108a65780600a5461086161071b565b61086b9190611b49565b6108759190611b49565b61089f907f0000000000000000000000000000000000000000000000000000000000000000611b87565b9150610900565b5f81600a546108b490611bad565b6108bc61071b565b6108c69190611b9a565b6108d09190611b49565b90506108fc817f0000000000000000000000000000000000000000000000000000000000000000611b87565b9250505b5f82600d5461090e60025490565b6109189190611b9a565b6109229190611b9a565b305f9081526020819052604090205490915081111561095457604051636562594760e01b815260040160405180910390fd5b604051636eb1769f60e11b81523360048201523060248201525f90735fc8d32690cc91d4c39d9d3abcbd16989f8757079063dd62ed3e90604401602060405180830381865afa1580156109a9573d5f5f3e3d5ffd5b505050506040513d601f19601f820116820180604052508101906109cd9190611b5c565b905086811015610a0557604051637dc7a0d960e11b815233600482015260248101829052604481018890526064015b60405180910390fd5b6040516323b872dd60e01b8152336004820152306024820152604481018890525f90735fc8d32690cc91d4c39d9d3abcbd16989f875707906323b872dd906064016020604051808303815f875af1158015610a62573d5f5f3e3d5ffd5b505050506040513d601f19601f82011682018060405250810190610a869190611bc7565b905080610aa6576040516336ffdad760e01b815260040160405180910390fd5b610ab1303385611490565b82600d5f828254610ac29190611b49565b90915550610ad09050611517565b604080518981526020810185905233917f8442948036198f1146d3a63c3db355d7e0295c2cc5676c755990445da4fdc1c9910160405180910390a25050505050505061059d6001600655565b336001600160a01b037f0000000000000000000000000000000000000000000000000000000000000000161480610b7b5750336001600160a01b037f000000000000000000000000000000000000000000000000000000000000000016145b80610bae5750336001600160a01b037f000000000000000000000000000000000000000000000000000000000000000016145b610bcb57604051633e5a022160e01b815260040160405180910390fd5b5f8111610beb5760405163b5b9a29d60e01b815260040160405180910390fd5b600d54600254610bfb9190611b9a565b811115610c1b57604051638e104be760e01b815260040160405180910390fd5b61059d3082611594565b610c2d6114ed565b5f8111610c4d5760405163b5b9a29d60e01b815260040160405180910390fd5b335f9081526020819052604090205481811015610c7d576040516319b99e4b60e11b815260040160405180910390fd5b5f610c8661071b565b90505f83600d54610c9660025490565b610ca09190611b9a565b610caa9190611b49565b610cd4907f0000000000000000000000000000000000000000000000000000000000000000611b87565b90505f5f600a5412610d005781600a5484610cef9190611b49565b610cf99190611b9a565b9050610d27565b5f600a54610d0d90611bad565b610d179085611b9a565b9050610d238382611b9a565b9150505b80831015610d48576040516343575d2360e01b815260040160405180910390fd5b610d53333087611490565b60405163a9059cbb60e01b8152336004820152602481018290525f90735fc8d32690cc91d4c39d9d3abcbd16989f8757079063a9059cbb906044016020604051808303815f875af1158015610daa573d5f5f3e3d5ffd5b505050506040513d601f19601f82011682018060405250810190610dce9190611bc7565b905080610dee5760405163645cc57160e01b815260040160405180910390fd5b85600d5f828254610dff9190611b9a565b90915550610e0d9050611517565b604080518781526020810184905233917f2dcf9433d75db0d8b1c172641f85e319ffe4ad22e108a95d1847ceb906e5195d910160405180910390a2505050505061059d6001600655565b610e5f6113ee565b610e685f6115cc565b565b610e726113ee565b60647f0000000000000000000000000000000000000000000000000000000000000000610ebf7f000000000000000000000000000000000000000000000000000000000000000084611be2565b610ec99190611be2565b60ff161015610ee657600b805460ff831660ff1990911617905550565b6040516332297daf60e01b815260040160405180910390fd5b5f600954600d5461078e9190611bfb565b60606004805461042e90611ad6565b336001600160a01b037f0000000000000000000000000000000000000000000000000000000000000000161480610f7e5750336001600160a01b037f000000000000000000000000000000000000000000000000000000000000000016145b80610fb15750336001600160a01b037f000000000000000000000000000000000000000000000000000000000000000016145b610fce57604051633e5a022160e01b815260040160405180910390fd5b5f8111610fee5760405163b5b9a29d60e01b815260040160405180910390fd5b61059d308261161d565b5f336104bc818585611490565b336001600160a01b037f0000000000000000000000000000000000000000000000000000000000000000161461104e57604051633e5a022160e01b815260040160405180910390fd5b6110566114ed565b806040516370a0823160e01b81523360048201525f90735fc8d32690cc91d4c39d9d3abcbd16989f875707906370a0823190602401602060405180830381865afa1580156110a6573d5f5f3e3d5ffd5b505050506040513d601f19601f820116820180604052508101906110ca9190611b5c565b9050818110156110ed576040516314631a4560e11b815260040160405180910390fd5b6040516323b872dd60e01b8152336004820152306024820152604481018490525f90735fc8d32690cc91d4c39d9d3abcbd16989f875707906323b872dd906064016020604051808303815f875af115801561114a573d5f5f3e3d5ffd5b505050506040513d601f19601f8201168201806040525081019061116e9190611bc7565b90508061118e5760405163afdbcc6360e01b815260040160405180910390fd5b5f611197611295565b90505f5f600a54126111b757600a546111b09083611b49565b90506111d0565b600a546111c390611bad565b6111cd9083611b9a565b90505b6111f481600d546111e060025490565b6111ea9190611b9a565b6102cd9190611b9a565b6111fe8683611b9a565b86600a5461120c9190611c12565b6112169190611c41565b600a5f8282546112269190611b22565b9250508190555085600c5f82825461123e9190611c6d565b9091555061124c9050611517565b505050505061059d6001600655565b6112636113ee565b6001600160a01b03811661128c57604051631e4fbdf760e01b81525f60048201526024016109fc565b61059d816115cc565b5f5f61129f61071b565b90505f81116112c15760405163b5b9a29d60e01b815260040160405180910390fd5b919050565b6112d38383836001611651565b505050565b6112e06114ed565b5f6112e961071b565b90505f60646112f88584611c12565b6113029190611c41565b90508061130f8688611b22565b131561132e576040516343575d2360e01b815260040160405180910390fd5b60405163a9059cbb60e01b81526001600160a01b0384166004820152602481018790525f90735fc8d32690cc91d4c39d9d3abcbd16989f8757079063a9059cbb906044016020604051808303815f875af115801561138e573d5f5f3e3d5ffd5b505050506040513d601f19601f820116820180604052508101906113b29190611bc7565b9050806113d25760405163645cc57160e01b815260040160405180910390fd5b6113db87611723565b5050506113e86001600655565b50505050565b6005546001600160a01b03163314610e685760405163118cdaa760e01b81523360048201526024016109fc565b6001600160a01b038381165f908152600160209081526040808320938616835292905220545f1981146113e8578181101561148257604051637dc7a0d960e11b81526001600160a01b038416600482015260248101829052604481018390526064016109fc565b6113e884848484035f611651565b6001600160a01b0383166114b957604051634b637e8f60e11b81525f60048201526024016109fc565b6001600160a01b0382166114e25760405163ec442f0560e01b81525f60048201526024016109fc565b6112d3838383611853565b60026006540361151057604051633ee5aeb560e01b815260040160405180910390fd5b6002600655565b5f5f600a541261153d57600a5461152c61071b565b6115369190611b49565b905061155e565b600a5461154990611bad565b61155161071b565b61155b9190611b9a565b90505b600d5460025461156e9190611b9a565b61157a6012600a611d76565b6115849083611bfb565b61158e9190611b87565b60095550565b6001600160a01b0382166115bd57604051634b637e8f60e11b81525f60048201526024016109fc565b6115c8825f83611853565b5050565b600580546001600160a01b038381166001600160a01b0319831681179093556040519116919082907f8be0079c531659141344cd1fd0a4f28419497f9722a3daafe3b4186f6b6457e0905f90a35050565b6001600160a01b0382166116465760405163ec442f0560e01b81525f60048201526024016109fc565b6115c85f8383611853565b6001600160a01b03841661167a5760405163e602df0560e01b81525f60048201526024016109fc565b6001600160a01b0383166116a357604051634a1406b160e11b81525f60048201526024016109fc565b6001600160a01b038085165f90815260016020908152604080832093871683529290522082905580156113e857826001600160a01b0316846001600160a01b03167f8c5be1e5ebec7d5bd14f71427d1e84f3dd0314c0f7b2291e5b200ac8c7c3b9258460405161171591815260200190565b60405180910390a350505050565b5f61172c611295565b90505f5f600a541261177657600a546117459083611b49565b61176f907f0000000000000000000000000000000000000000000000000000000000000000611b87565b90506117b9565b600a5461178290611bad565b61178c9083611b9a565b6117b6907f0000000000000000000000000000000000000000000000000000000000000000611b87565b90505b5f600d546117c660025490565b6117d09190611b9a565b6117da9083611b9a565b90506117e581610f1f565b5f6117f08585611b49565b600a546117fd9087611c12565b6118079190611c41565b90505f81121561182d5780600a5f8282546118229190611b22565b909155506118449050565b80600a5f82825461183e9190611c6d565b90915550505b61184c611517565b5050505050565b6001600160a01b03831661187d578060025f8282546118729190611b49565b909155506118ed9050565b6001600160a01b0383165f90815260208190526040902054818110156118cf5760405163391434e360e21b81526001600160a01b038516600482015260248101829052604481018390526064016109fc565b6001600160a01b0384165f9081526020819052604090209082900390555b6001600160a01b03821661190957600280548290039055611927565b6001600160a01b0382165f9081526020819052604090208054820190555b816001600160a01b0316836001600160a01b03167fddf252ad1be2c89b69c2b068fc378daa952ba7f163c4a11628f55a4df523b3ef8360405161196c91815260200190565b60405180910390a3505050565b602081525f82518060208401528060208501604085015e5f604082850101526040601f19601f83011684010191505092915050565b80356001600160a01b03811681146112c1575f5ffd5b5f5f604083850312156119d5575f5ffd5b6119de836119ae565b946020939093013593505050565b5f602082840312156119fc575f5ffd5b5035919050565b801515811461059d575f5ffd5b5f60208284031215611a20575f5ffd5b8135611a2b81611a03565b9392505050565b5f5f5f60608486031215611a44575f5ffd5b611a4d846119ae565b9250611a5b602085016119ae565b929592945050506040919091013590565b5f60208284031215611a7c575f5ffd5b611a2b826119ae565b5f60208284031215611a95575f5ffd5b813560ff81168114611a2b575f5ffd5b5f5f60408385031215611ab6575f5ffd5b611abf836119ae565b9150611acd602084016119ae565b90509250929050565b600181811c90821680611aea57607f821691505b602082108103611b0857634e487b7160e01b5f52602260045260245ffd5b50919050565b634e487b7160e01b5f52601160045260245ffd5b8082018281125f831280158216821582161715611b4157611b41611b0e565b505092915050565b808201808211156104c2576104c2611b0e565b5f60208284031215611b6c575f5ffd5b5051919050565b634e487b7160e01b5f52601260045260245ffd5b5f82611b9557611b95611b73565b500490565b818103818111156104c2576104c2611b0e565b5f600160ff1b8201611bc157611bc1611b0e565b505f0390565b5f60208284031215611bd7575f5ffd5b8151611a2b81611a03565b60ff81811683821601908111156104c2576104c2611b0e565b80820281158282048414176104c2576104c2611b0e565b8082025f8212600160ff1b84141615611c2d57611c2d611b0e565b81810583148215176104c2576104c2611b0e565b5f82611c4f57611c4f611b73565b600160ff1b82145f1984141615611c6857611c68611b0e565b500590565b8181035f831280158383131683831282161715611c8c57611c8c611b0e565b5092915050565b6001815b6001841115611cce57808504811115611cb257611cb2611b0e565b6001841615611cc057908102905b60019390931c928002611c97565b935093915050565b5f82611ce4575060016104c2565b81611cf057505f6104c2565b8160018114611d065760028114611d1057611d2c565b60019150506104c2565b60ff841115611d2157611d21611b0e565b50506001821b6104c2565b5060208310610133831016604e8410600b8410161715611d4f575081810a6104c2565b611d5b5f198484611c93565b805f1904821115611d6e57611d6e611b0e565b029392505050565b5f611a2b60ff841683611cd656fea26469706673582212204875aba99f70ef39057aac2b0dd511da9a128549ca192d34acef8246e6c45e7664736f6c634300081b0033","linkReferences":{}},"methodIdentifiers":{"allowance(address,address)":"dd62ed3e","approve(address,uint256)":"095ea7b3","balanceOf(address)":"70a08231","burn(uint256)":"42966c68","buyTokens(uint256)":"3610724e","decimals()":"313ce567","geNumberOfTokensInTheMarcetCapp()":"7ec8bc20","getMarketCap()":"90825c28","getValueOfOneTokenInWei()":"d7b571b8","getcompanyAllreadyWithdrawalThisMany()":"2545a118","getcompanyWithdrawalPercentage()":"dc87fe7e","getownerAllreadyWithdrawalThisMany()":"03253e25","getsecondownerAllreadyWithdrawalThisMany()":"36f32463","getwBTCBalance()":"2c9b75ec","getwBTCBalanceNotZero()":"f3836a43","mint(uint256)":"a0712d68","name()":"06fdde03","owner()":"8da5cb5b","renounceOwnership()":"715018a6","sellTokens(uint256)":"6c11bcd3","setCompanyCanWithdraw(bool)":"0ba5bc50","setcompanyWithdrawalPercentage(uint8)":"7c131dea","symbol()":"95d89b41","totalSupply()":"18160ddd","transfer(address,uint256)":"a9059cbb","transferFrom(address,address,uint256)":"23b872dd","transferOwnership(address)":"f2fde38b","uplodeMoney(uint256)":"ba8e0b5f","wBTC()":"9b452931","withdowOwners(uint256)":"171cbf69","withdrawCompany(uint256)":"0b6fc239"},"id":27}