{"abi":[{"type":"constructor","inputs":[{"name":"_numberOfTokens","type":"uint256","internalType":"uint256"},{"name":"_company","type":"address","internalType":"address"},{"name":"_companyWithdrawalPercentage","type":"uint8","internalType":"uint8"},{"name":"_i_OWNERWITHDRAWALPERCENTAGE","type":"uint8","internalType":"uint8"},{"name":"_i_SECONDOWNERWITHDRAWALPERCENTAGE","type":"uint8","internalType":"uint8"},{"name":"_i_secondowner","type":"address","internalType":"address"},{"name":"_i_numberOfVirtualWei","type":"uint256","internalType":"uint256"}],"stateMutability":"nonpayable"},{"type":"function","name":"allowance","inputs":[{"name":"owner","type":"address","internalType":"address"},{"name":"spender","type":"address","internalType":"address"}],"outputs":[{"name":"","type":"uint256","internalType":"uint256"}],"stateMutability":"view"},{"type":"function","name":"approve","inputs":[{"name":"spender","type":"address","internalType":"address"},{"name":"value","type":"uint256","internalType":"uint256"}],"outputs":[{"name":"","type":"bool","internalType":"bool"}],"stateMutability":"nonpayable"},{"type":"function","name":"balanceOf","inputs":[{"name":"account","type":"address","internalType":"address"}],"outputs":[{"name":"","type":"uint256","internalType":"uint256"}],"stateMutability":"view"},{"type":"function","name":"burn","inputs":[{"name":"_numberOfTokens","type":"uint256","internalType":"uint256"}],"outputs":[],"stateMutability":"nonpayable"},{"type":"function","name":"buyTokens","inputs":[{"name":"wBTCAmount","type":"uint256","internalType":"uint256"}],"outputs":[],"stateMutability":"nonpayable"},{"type":"function","name":"decimals","inputs":[],"outputs":[{"name":"","type":"uint8","internalType":"uint8"}],"stateMutability":"view"},{"type":"function","name":"geNumberOfTokensInTheMarcetCapp","inputs":[],"outputs":[{"name":"","type":"uint256","internalType":"uint256"}],"stateMutability":"view"},{"type":"function","name":"getContractWeiBalance","inputs":[],"outputs":[{"name":"","type":"uint256","internalType":"uint256"}],"stateMutability":"view"},{"type":"function","name":"getMarketCap","inputs":[],"outputs":[{"name":"","type":"uint256","internalType":"uint256"}],"stateMutability":"view"},{"type":"function","name":"getValueOfOneTokenInWei","inputs":[],"outputs":[{"name":"","type":"uint256","internalType":"uint256"}],"stateMutability":"view"},{"type":"function","name":"getcompanyAllreadyWithdrawalThisMany","inputs":[],"outputs":[{"name":"","type":"int256","internalType":"int256"}],"stateMutability":"view"},{"type":"function","name":"getcompanyWithdrawalPercentage","inputs":[],"outputs":[{"name":"","type":"uint256","internalType":"uint256"}],"stateMutability":"view"},{"type":"function","name":"getownerAllreadyWithdrawalThisMany","inputs":[],"outputs":[{"name":"","type":"uint256","internalType":"uint256"}],"stateMutability":"view"},{"type":"function","name":"getsecondownerAllreadyWithdrawalThisMany","inputs":[],"outputs":[{"name":"","type":"uint256","internalType":"uint256"}],"stateMutability":"view"},{"type":"function","name":"getwBTCBalance","inputs":[],"outputs":[{"name":"","type":"uint256","internalType":"uint256"}],"stateMutability":"view"},{"type":"function","name":"getwBTCBalanceNotZero","inputs":[],"outputs":[{"name":"","type":"uint256","internalType":"uint256"}],"stateMutability":"view"},{"type":"function","name":"mint","inputs":[{"name":"_numberOfTokens","type":"uint256","internalType":"uint256"}],"outputs":[],"stateMutability":"nonpayable"},{"type":"function","name":"name","inputs":[],"outputs":[{"name":"","type":"string","internalType":"string"}],"stateMutability":"view"},{"type":"function","name":"owner","inputs":[],"outputs":[{"name":"","type":"address","internalType":"address"}],"stateMutability":"view"},{"type":"function","name":"renounceOwnership","inputs":[],"outputs":[],"stateMutability":"nonpayable"},{"type":"function","name":"sellTokens","inputs":[{"name":"_tokenAmount","type":"uint256","internalType":"uint256"}],"outputs":[],"stateMutability":"nonpayable"},{"type":"function","name":"setCompanyCanWithdraw","inputs":[{"name":"_companyCanWithdraw","type":"bool","internalType":"bool"}],"outputs":[],"stateMutability":"nonpayable"},{"type":"function","name":"setcompanyWithdrawalPercentage","inputs":[{"name":"newcompanyWithdrawalPercentage","type":"uint8","internalType":"uint8"}],"outputs":[],"stateMutability":"nonpayable"},{"type":"function","name":"symbol","inputs":[],"outputs":[{"name":"","type":"string","internalType":"string"}],"stateMutability":"view"},{"type":"function","name":"totalSupply","inputs":[],"outputs":[{"name":"","type":"uint256","internalType":"uint256"}],"stateMutability":"view"},{"type":"function","name":"transfer","inputs":[{"name":"to","type":"address","internalType":"address"},{"name":"value","type":"uint256","internalType":"uint256"}],"outputs":[{"name":"","type":"bool","internalType":"bool"}],"stateMutability":"nonpayable"},{"type":"function","name":"transferFrom","inputs":[{"name":"from","type":"address","internalType":"address"},{"name":"to","type":"address","internalType":"address"},{"name":"value","type":"uint256","internalType":"uint256"}],"outputs":[{"name":"","type":"bool","internalType":"bool"}],"stateMutability":"nonpayable"},{"type":"function","name":"transferOwnership","inputs":[{"name":"newOwner","type":"address","internalType":"address"}],"outputs":[],"stateMutability":"nonpayable"},{"type":"function","name":"uplodeMoney","inputs":[{"name":"wBTCAmount","type":"uint256","internalType":"uint256"}],"outputs":[],"stateMutability":"nonpayable"},{"type":"function","name":"wBTC","inputs":[],"outputs":[{"name":"","type":"address","internalType":"contract IERC20"}],"stateMutability":"view"},{"type":"function","name":"withdowOwners","inputs":[{"name":"withdrawValueinWei","type":"uint256","internalType":"uint256"}],"outputs":[],"stateMutability":"nonpayable"},{"type":"function","name":"withdrawCompany","inputs":[{"name":"withdrawValueinWei","type":"uint256","internalType":"uint256"}],"outputs":[],"stateMutability":"nonpayable"},{"type":"event","name":"Approval","inputs":[{"name":"owner","type":"address","indexed":true,"internalType":"address"},{"name":"spender","type":"address","indexed":true,"internalType":"address"},{"name":"value","type":"uint256","indexed":false,"internalType":"uint256"}],"anonymous":false},{"type":"event","name":"OwnershipTransferred","inputs":[{"name":"previousOwner","type":"address","indexed":true,"internalType":"address"},{"name":"newOwner","type":"address","indexed":true,"internalType":"address"}],"anonymous":false},{"type":"event","name":"Transfer","inputs":[{"name":"from","type":"address","indexed":true,"internalType":"address"},{"name":"to","type":"address","indexed":true,"internalType":"address"},{"name":"value","type":"uint256","indexed":false,"internalType":"uint256"}],"anonymous":false},{"type":"error","name":"Coin__BurnMoreThanTheTokensInTheMarcatCap","inputs":[]},{"type":"error","name":"Coin__CompanyWantsToWithdrawMoreMoneyThanAllowed","inputs":[]},{"type":"error","name":"Coin__FailedToReceiveWBTC","inputs":[]},{"type":"error","name":"Coin__FailedToSendBIT","inputs":[]},{"type":"error","name":"Coin__FailedToSendWBTC","inputs":[]},{"type":"error","name":"Coin__InsufficientBITInContract","inputs":[]},{"type":"error","name":"Coin__InsufficientTokens","inputs":[]},{"type":"error","name":"Coin__InsufficientWBTC","inputs":[]},{"type":"error","name":"Coin__InsufficientWBTCInContract","inputs":[]},{"type":"error","name":"Coin__MustBeMoreThanZero","inputs":[]},{"type":"error","name":"Coin__NotAuthorized","inputs":[]},{"type":"error","name":"Coin__NotEnoughTokensAvailable","inputs":[]},{"type":"error","name":"Coin__WBTCTransferFailed","inputs":[]},{"type":"error","name":"Coin__bitBalanceMustBeMoreThanZero","inputs":[]},{"type":"error","name":"ERC20InsufficientAllowance","inputs":[{"name":"spender","type":"address","internalType":"address"},{"name":"allowance","type":"uint256","internalType":"uint256"},{"name":"needed","type":"uint256","internalType":"uint256"}]},{"type":"error","name":"ERC20InsufficientBalance","inputs":[{"name":"sender","type":"address","internalType":"address"},{"name":"balance","type":"uint256","internalType":"uint256"},{"name":"needed","type":"uint256","internalType":"uint256"}]},{"type":"error","name":"ERC20InvalidApprover","inputs":[{"name":"approver","type":"address","internalType":"address"}]},{"type":"error","name":"ERC20InvalidReceiver","inputs":[{"name":"receiver","type":"address","internalType":"address"}]},{"type":"error","name":"ERC20InvalidSender","inputs":[{"name":"sender","type":"address","internalType":"address"}]},{"type":"error","name":"ERC20InvalidSpender","inputs":[{"name":"spender","type":"address","internalType":"address"}]},{"type":"error","name":"OwnableInvalidOwner","inputs":[{"name":"owner","type":"address","internalType":"address"}]},{"type":"error","name":"OwnableUnauthorizedAccount","inputs":[{"name":"account","type":"address","internalType":"address"}]},{"type":"error","name":"ReentrancyGuardReentrantCall","inputs":[]}],"bytecode":{"object":"0x6101406040525f60088190556009819055600c805460ff19908116601417909155600d829055600e91909155600f80549091166001179055348015610042575f5ffd5b506040516123c03803806123c083398101604081905261006191610383565b306040518060400160405280600b81526020016a43727970746f53746f636b60a81b81525060405180604001604052806002815260200161435360f01b81525081600390816100b09190610493565b5060046100bd8282610493565b5050506001600160a01b0381166100ee57604051631e4fbdf760e01b81525f60048201526024015b60405180910390fd5b6100f7816101a9565b506001600655336080526001600160a01b0386811661012052600c805460ff191660ff8881169190911790915584811660e052851660a052821660c052600b81905561015f30610145601290565b61015090600a610646565b61015a908a61065b565b6101fa565b60025461016e6012600a610646565b600b5461017b919061065b565b6101859190610672565b600a55600254600b54610198919061065b565b61010052506106a495505050505050565b600580546001600160a01b038381166001600160a01b0319831681179093556040519116919082907f8be0079c531659141344cd1fd0a4f28419497f9722a3daafe3b4186f6b6457e0905f90a35050565b6001600160a01b0382166102235760405163ec442f0560e01b81525f60048201526024016100e5565b61022e5f8383610232565b5050565b6001600160a01b03831661025c578060025f8282546102519190610691565b909155506102cc9050565b6001600160a01b0383165f90815260208190526040902054818110156102ae5760405163391434e360e21b81526001600160a01b038516600482015260248101829052604481018390526064016100e5565b6001600160a01b0384165f9081526020819052604090209082900390555b6001600160a01b0382166102e857600280548290039055610306565b6001600160a01b0382165f9081526020819052604090208054820190555b816001600160a01b0316836001600160a01b03167fddf252ad1be2c89b69c2b068fc378daa952ba7f163c4a11628f55a4df523b3ef8360405161034b91815260200190565b60405180910390a3505050565b80516001600160a01b038116811461036e575f5ffd5b919050565b805160ff8116811461036e575f5ffd5b5f5f5f5f5f5f5f60e0888a031215610399575f5ffd5b875196506103a960208901610358565b95506103b760408901610373565b94506103c560608901610373565b93506103d360808901610373565b92506103e160a08901610358565b91505f60c089015190508091505092959891949750929550565b634e487b7160e01b5f52604160045260245ffd5b600181811c9082168061042357607f821691505b60208210810361044157634e487b7160e01b5f52602260045260245ffd5b50919050565b601f82111561048e57805f5260205f20601f840160051c8101602085101561046c5750805b601f840160051c820191505b8181101561048b575f8155600101610478565b50505b505050565b81516001600160401b038111156104ac576104ac6103fb565b6104c0816104ba845461040f565b84610447565b6020601f8211600181146104f2575f83156104db5750848201515b5f19600385901b1c1916600184901b17845561048b565b5f84815260208120601f198516915b828110156105215787850151825560209485019460019092019101610501565b508482101561053e57868401515f19600387901b60f8161c191681555b50505050600190811b01905550565b634e487b7160e01b5f52601160045260245ffd5b6001815b600184111561059c578085048111156105805761058061054d565b600184161561058e57908102905b60019390931c928002610565565b935093915050565b5f826105b257506001610640565b816105be57505f610640565b81600181146105d457600281146105de576105fa565b6001915050610640565b60ff8411156105ef576105ef61054d565b50506001821b610640565b5060208310610133831016604e8410600b841016171561061d575081810a610640565b6106295f198484610561565b805f190482111561063c5761063c61054d565b0290505b92915050565b5f61065460ff8416836105a4565b9392505050565b80820281158282048414176106405761064061054d565b5f8261068c57634e487b7160e01b5f52601260045260245ffd5b500490565b808201808211156106405761064061054d565b60805160a05160c05160e0516101005161012051611c6c6107545f395f81816104dc0152818161053601528181610ac401528181610eb10152610f3201525f818161085f01528181610bdd015281816110d0015261166001525f81816106650152610d9301525f81816106360152818161068901528181610a910152610e7e01525f81816105c80152610db701525f8181610599015281816105ec01528181610a5f0152610e4c0152611c6c5ff3fe608060405234801561000f575f5ffd5b50600436106101e7575f3560e01c8063715018a611610109578063a9059cbb1161009e578063dd62ed3e1161006e578063dd62ed3e146103cf578063e0f5018a14610407578063f2fde38b1461040d578063f3836a4314610420575f5ffd5b8063a9059cbb14610396578063ba8e0b5f146103a9578063d7b571b8146103bc578063dc87fe7e146103c4575f5ffd5b806390825c28116100d957806390825c281461036057806395d89b41146103685780639b45293114610370578063a0712d6814610383575f5ffd5b8063715018a6146103185780637c131dea146103205780637ec8bc20146103335780638da5cb5b1461033b575f5ffd5b80632545a1181161017f57806336f324631161014f57806336f32463146102c257806342966c68146102ca5780636c11bcd3146102dd57806370a08231146102f0575f5ffd5b80632545a118146102905780632c9b75ec14610298578063313ce567146102a05780633610724e146102af575f5ffd5b80630ba5bc50116101ba5780630ba5bc501461024f578063171cbf691461026257806318160ddd1461027557806323b872dd1461027d575f5ffd5b806303253e25146101eb57806306fdde0314610202578063095ea7b3146102175780630b6fc2391461023a575b5f5ffd5b6008545b6040519081526020015b60405180910390f35b61020a610428565b6040516101f99190611845565b61022a610225366004611890565b6104b8565b60405190151581526020016101f9565b61024d6102483660046118b8565b6104d1565b005b61024d61025d3660046118dc565b610574565b61024d6102703660046118b8565b61058f565b6002546101ef565b61022a61028b3660046118fe565b6106d7565b600d546101ef565b6101ef6106fa565b604051601281526020016101f9565b61024d6102bd3660046118b8565b61076f565b6009546101ef565b61024d6102d83660046118b8565b610a54565b61024d6102eb3660046118b8565b610b5d565b6101ef6102fe366004611938565b6001600160a01b03165f9081526020819052604090205490565b61024d610d74565b61024d61032e366004611951565b610d87565b600e546101ef565b6005546001600160a01b03165b6040516001600160a01b0390911681526020016101f9565b6101ef610e1c565b61020a610e32565b600754610348906001600160a01b031681565b61024d6103913660046118b8565b610e41565b61022a6103a4366004611890565b610f1a565b61024d6103b73660046118b8565b610f27565b600a546101ef565b600c5460ff166101ef565b6101ef6103dd366004611971565b6001600160a01b039182165f90815260016020908152604080832093909416825291909152205490565b476101ef565b61024d61041b366004611938565b611163565b6101ef6111a2565b606060038054610437906119a2565b80601f0160208091040260200160405190810160405280929190818152602001828054610463906119a2565b80156104ae5780601f10610485576101008083540402835291602001916104ae565b820191905f5260205f20905b81548152906001019060200180831161049157829003601f168201915b5050505050905090565b5f336104c58185856111d3565b60019150505b92915050565b336001600160a01b037f0000000000000000000000000000000000000000000000000000000000000000161461051a57604051633e5a022160e01b815260040160405180910390fd5b600f5460ff161561057157600d54600c5461055a91839160ff167f00000000000000000000000000000000000000000000000000000000000000006111e5565b80600d5f82825461056b91906119ee565b90915550505b50565b61057c6112fb565b600f805460ff1916911515919091179055565b6001600160a01b037f000000000000000000000000000000000000000000000000000000000000000016330361062c57610610816008547f000000000000000000000000000000000000000000000000000000000000000060ff167f00000000000000000000000000000000000000000000000000000000000000006111e5565b8060085f8282546106219190611a15565b909155506105719050565b6001600160a01b037f00000000000000000000000000000000000000000000000000000000000000001633036106be576106ad816009547f000000000000000000000000000000000000000000000000000000000000000060ff167f00000000000000000000000000000000000000000000000000000000000000006111e5565b8060095f8282546106219190611a15565b604051633e5a022160e01b815260040160405180910390fd5b5f336106e4858285611328565b6106ef85858561139d565b506001949350505050565b6040516370a0823160e01b81523060048201525f908190739be89d2a4cd102d8fecc6bf9da793be995c22541906370a0823190602401602060405180830381865afa15801561074b573d5f5f3e3d5ffd5b505050506040513d601f19601f820116820180604052508101906104cb9190611a28565b6107776113fa565b806040516370a0823160e01b81523360048201525f90739be89d2a4cd102d8fecc6bf9da793be995c22541906370a0823190602401602060405180830381865afa1580156107c7573d5f5f3e3d5ffd5b505050506040513d601f19601f820116820180604052508101906107eb9190611a28565b90508181101561080e576040516314631a4560e11b815260040160405180910390fd5b610843604051806040016040528060148152602001732432b9329034b99034ba103a34329032b93937b960611b815250611424565b5f600b5461084f6106fa565b6108599190611a15565b610883907f0000000000000000000000000000000000000000000000000000000000000000611a53565b90506108bb604051806040016040528060158152602001742432b9329034b99034ba103a34329032b93937b91960591b815250611424565b5f81600e546108c960025490565b6108d39190611a66565b6108dd9190611a66565b9050610915604051806040016040528060158152602001744865726520697320697420746865206572726f723360581b815250611424565b305f9081526020819052604090205481111561094457604051636562594760e01b815260040160405180910390fd5b61097a6040518060400160405280601581526020017412195c99481a5cc81a5d081d1a1948195c9c9bdc8d605a1b815250611424565b6040516323b872dd60e01b8152336004820152306024820152604481018690525f90739be89d2a4cd102d8fecc6bf9da793be995c22541906323b872dd906064016020604051808303815f875af11580156109d7573d5f5f3e3d5ffd5b505050506040513d601f19601f820116820180604052508101906109fb9190611a79565b905080610a1b576040516336ffdad760e01b815260040160405180910390fd5b610a2630338461139d565b81600e5f828254610a379190611a15565b90915550610a459050611467565b50505050506105716001600655565b336001600160a01b037f0000000000000000000000000000000000000000000000000000000000000000161480610ab35750336001600160a01b037f000000000000000000000000000000000000000000000000000000000000000016145b80610ae65750336001600160a01b037f000000000000000000000000000000000000000000000000000000000000000016145b610b0357604051633e5a022160e01b815260040160405180910390fd5b5f8111610b235760405163b5b9a29d60e01b815260040160405180910390fd5b600e54600254610b339190611a66565b811115610b5357604051638e104be760e01b815260040160405180910390fd5b61057130826114b1565b610b656113fa565b5f8111610b855760405163b5b9a29d60e01b815260040160405180910390fd5b335f9081526020819052604090205481811015610bb5576040516319b99e4b60e11b815260040160405180910390fd5b5f82600e54610bc360025490565b610bcd9190611a66565b610bd79190611a15565b610c01907f0000000000000000000000000000000000000000000000000000000000000000611a53565b90505f81600b54610c106106fa565b610c1a9190611a15565b610c249190611a66565b6040516370a0823160e01b81523060048201529091505f90739be89d2a4cd102d8fecc6bf9da793be995c22541906370a0823190602401602060405180830381865afa158015610c76573d5f5f3e3d5ffd5b505050506040513d601f19601f82011682018060405250810190610c9a9190611a28565b905081811015610cbd576040516343575d2360e01b815260040160405180910390fd5b610cc833308761139d565b60405163a9059cbb60e01b8152336004820152602481018390525f90739be89d2a4cd102d8fecc6bf9da793be995c225419063a9059cbb906044016020604051808303815f875af1158015610d1f573d5f5f3e3d5ffd5b505050506040513d601f19601f82011682018060405250810190610d439190611a79565b905080610d635760405163645cc57160e01b815260040160405180910390fd5b85600e5f828254610a379190611a66565b610d7c6112fb565b610d855f6114e9565b565b610d8f6112fb565b60647f0000000000000000000000000000000000000000000000000000000000000000610ddc7f000000000000000000000000000000000000000000000000000000000000000084611a94565b610de69190611a94565b60ff161015610e0357600c805460ff831660ff1990911617905550565b6040516332297daf60e01b815260040160405180910390fd5b5f600a54600e54610e2d9190611aad565b905090565b606060048054610437906119a2565b336001600160a01b037f0000000000000000000000000000000000000000000000000000000000000000161480610ea05750336001600160a01b037f000000000000000000000000000000000000000000000000000000000000000016145b80610ed35750336001600160a01b037f000000000000000000000000000000000000000000000000000000000000000016145b610ef057604051633e5a022160e01b815260040160405180910390fd5b5f8111610f105760405163b5b9a29d60e01b815260040160405180910390fd5b610571308261153a565b5f336104c581858561139d565b336001600160a01b037f00000000000000000000000000000000000000000000000000000000000000001614610f7057604051633e5a022160e01b815260040160405180910390fd5b610f786113fa565b806040516370a0823160e01b81523360048201525f90739be89d2a4cd102d8fecc6bf9da793be995c22541906370a0823190602401602060405180830381865afa158015610fc8573d5f5f3e3d5ffd5b505050506040513d601f19601f82011682018060405250810190610fec9190611a28565b90508181101561100f576040516314631a4560e11b815260040160405180910390fd5b6040516323b872dd60e01b8152336004820152306024820152604481018490525f90739be89d2a4cd102d8fecc6bf9da793be995c22541906323b872dd906064016020604051808303815f875af115801561106c573d5f5f3e3d5ffd5b505050506040513d601f19601f820116820180604052508101906110909190611a79565b9050806110b05760405163afdbcc6360e01b815260040160405180910390fd5b5f6110b96111a2565b90505f600b54826110ca9190611a15565b6110f4907f0000000000000000000000000000000000000000000000000000000000000000611a53565b905061111a81600e5461110660025490565b6111109190611a66565b6102d89190611a66565b6111248683611a66565b600b546111319088611aad565b61113b9190611a53565b600b5f82825461114b9190611a15565b9250508190555085600d5f828254610a379190611ac4565b61116b6112fb565b6001600160a01b03811661119957604051631e4fbdf760e01b81525f60048201526024015b60405180910390fd5b610571816114e9565b5f5f6111ac6106fa565b90505f81116111ce5760405163b5b9a29d60e01b815260040160405180910390fd5b919050565b6111e0838383600161156e565b505050565b6111ed6113fa565b5f6111f66106fa565b90505f60646112058584611aea565b61120f9190611b19565b90508061121c86886119ee565b131561123b576040516343575d2360e01b815260040160405180910390fd5b60405163a9059cbb60e01b81526001600160a01b0384166004820152602481018790525f90739be89d2a4cd102d8fecc6bf9da793be995c225419063a9059cbb906044016020604051808303815f875af115801561129b573d5f5f3e3d5ffd5b505050506040513d601f19601f820116820180604052508101906112bf9190611a79565b9050806112df5760405163645cc57160e01b815260040160405180910390fd5b6112e887611640565b5050506112f56001600655565b50505050565b6005546001600160a01b03163314610d855760405163118cdaa760e01b8152336004820152602401611190565b6001600160a01b038381165f908152600160209081526040808320938616835292905220545f1981146112f5578181101561138f57604051637dc7a0d960e11b81526001600160a01b03841660048201526024810182905260448101839052606401611190565b6112f584848484035f61156e565b6001600160a01b0383166113c657604051634b637e8f60e11b81525f6004820152602401611190565b6001600160a01b0382166113ef5760405163ec442f0560e01b81525f6004820152602401611190565b6111e08383836116fc565b60026006540361141d57604051633ee5aeb560e01b815260040160405180910390fd5b6002600655565b610571816040516024016114389190611845565b60408051601f198184030181529190526020810180516001600160e01b031663104c13eb60e21b179052611822565b600e546002546114779190611a66565b6114836012600a611c28565b61148b6106fa565b600b546114989190611a15565b6114a29190611aad565b6114ac9190611a53565b600a55565b6001600160a01b0382166114da57604051634b637e8f60e11b81525f6004820152602401611190565b6114e5825f836116fc565b5050565b600580546001600160a01b038381166001600160a01b0319831681179093556040519116919082907f8be0079c531659141344cd1fd0a4f28419497f9722a3daafe3b4186f6b6457e0905f90a35050565b6001600160a01b0382166115635760405163ec442f0560e01b81525f6004820152602401611190565b6114e55f83836116fc565b6001600160a01b0384166115975760405163e602df0560e01b81525f6004820152602401611190565b6001600160a01b0383166115c057604051634a1406b160e11b81525f6004820152602401611190565b6001600160a01b038085165f90815260016020908152604080832093871683529290522082905580156112f557826001600160a01b0316846001600160a01b03167f8c5be1e5ebec7d5bd14f71427d1e84f3dd0314c0f7b2291e5b200ac8c7c3b9258460405161163291815260200190565b60405180910390a350505050565b5f6116496111a2565b90505f600b548261165a9190611a15565b611684907f0000000000000000000000000000000000000000000000000000000000000000611a53565b90505f600e5461169360025490565b61169d9190611a66565b6116a79083611a66565b90506116b281610e41565b5f6116bd8585611a15565b600b546116ca9087611aad565b6116d49190611a53565b905080600b5f8282546116e79190611a66565b909155506116f59050611467565b5050505050565b6001600160a01b038316611726578060025f82825461171b9190611a15565b909155506117969050565b6001600160a01b0383165f90815260208190526040902054818110156117785760405163391434e360e21b81526001600160a01b03851660048201526024810182905260448101839052606401611190565b6001600160a01b0384165f9081526020819052604090209082900390555b6001600160a01b0382166117b2576002805482900390556117d0565b6001600160a01b0382165f9081526020819052604090208054820190555b816001600160a01b0316836001600160a01b03167fddf252ad1be2c89b69c2b068fc378daa952ba7f163c4a11628f55a4df523b3ef8360405161181591815260200190565b60405180910390a3505050565b610571815f6a636f6e736f6c652e6c6f6790505f5f835160208501845afa505050565b602081525f82518060208401528060208501604085015e5f604082850101526040601f19601f83011684010191505092915050565b80356001600160a01b03811681146111ce575f5ffd5b5f5f604083850312156118a1575f5ffd5b6118aa8361187a565b946020939093013593505050565b5f602082840312156118c8575f5ffd5b5035919050565b8015158114610571575f5ffd5b5f602082840312156118ec575f5ffd5b81356118f7816118cf565b9392505050565b5f5f5f60608486031215611910575f5ffd5b6119198461187a565b92506119276020850161187a565b929592945050506040919091013590565b5f60208284031215611948575f5ffd5b6118f78261187a565b5f60208284031215611961575f5ffd5b813560ff811681146118f7575f5ffd5b5f5f60408385031215611982575f5ffd5b61198b8361187a565b91506119996020840161187a565b90509250929050565b600181811c908216806119b657607f821691505b6020821081036119d457634e487b7160e01b5f52602260045260245ffd5b50919050565b634e487b7160e01b5f52601160045260245ffd5b8082018281125f831280158216821582161715611a0d57611a0d6119da565b505092915050565b808201808211156104cb576104cb6119da565b5f60208284031215611a38575f5ffd5b5051919050565b634e487b7160e01b5f52601260045260245ffd5b5f82611a6157611a61611a3f565b500490565b818103818111156104cb576104cb6119da565b5f60208284031215611a89575f5ffd5b81516118f7816118cf565b60ff81811683821601908111156104cb576104cb6119da565b80820281158282048414176104cb576104cb6119da565b8181035f831280158383131683831282161715611ae357611ae36119da565b5092915050565b8082025f8212600160ff1b84141615611b0557611b056119da565b81810583148215176104cb576104cb6119da565b5f82611b2757611b27611a3f565b600160ff1b82145f1984141615611b4057611b406119da565b500590565b6001815b6001841115611b8057808504811115611b6457611b646119da565b6001841615611b7257908102905b60019390931c928002611b49565b935093915050565b5f82611b96575060016104cb565b81611ba257505f6104cb565b8160018114611bb85760028114611bc257611bde565b60019150506104cb565b60ff841115611bd357611bd36119da565b50506001821b6104cb565b5060208310610133831016604e8410600b8410161715611c01575081810a6104cb565b611c0d5f198484611b45565b805f1904821115611c2057611c206119da565b029392505050565b5f6118f760ff841683611b8856fea2646970667358221220026ddea2b52c1a4b1ac1166194f1fae595d6b43034451c3631e35021c2472ca664736f6c634300081b0033","linkReferences":{}},"methodIdentifiers":{"allowance(address,address)":"dd62ed3e","approve(address,uint256)":"095ea7b3","balanceOf(address)":"70a08231","burn(uint256)":"42966c68","buyTokens(uint256)":"3610724e","decimals()":"313ce567","geNumberOfTokensInTheMarcetCapp()":"7ec8bc20","getContractWeiBalance()":"e0f5018a","getMarketCap()":"90825c28","getValueOfOneTokenInWei()":"d7b571b8","getcompanyAllreadyWithdrawalThisMany()":"2545a118","getcompanyWithdrawalPercentage()":"dc87fe7e","getownerAllreadyWithdrawalThisMany()":"03253e25","getsecondownerAllreadyWithdrawalThisMany()":"36f32463","getwBTCBalance()":"2c9b75ec","getwBTCBalanceNotZero()":"f3836a43","mint(uint256)":"a0712d68","name()":"06fdde03","owner()":"8da5cb5b","renounceOwnership()":"715018a6","sellTokens(uint256)":"6c11bcd3","setCompanyCanWithdraw(bool)":"0ba5bc50","setcompanyWithdrawalPercentage(uint8)":"7c131dea","symbol()":"95d89b41","totalSupply()":"18160ddd","transfer(address,uint256)":"a9059cbb","transferFrom(address,address,uint256)":"23b872dd","transferOwnership(address)":"f2fde38b","uplodeMoney(uint256)":"ba8e0b5f","wBTC()":"9b452931","withdowOwners(uint256)":"171cbf69","withdrawCompany(uint256)":"0b6fc239"},"id":27}