{"abi":[{"type":"constructor","inputs":[{"name":"_numberOfTokens","type":"uint256","internalType":"uint256"},{"name":"_company","type":"address","internalType":"address"},{"name":"_companyWithdrawalPercentage","type":"uint8","internalType":"uint8"},{"name":"_i_OWNERWITHDRAWALPERCENTAGE","type":"uint8","internalType":"uint8"},{"name":"_i_SECONDOWNERWITHDRAWALPERCENTAGE","type":"uint8","internalType":"uint8"},{"name":"_i_secondowner","type":"address","internalType":"address"},{"name":"_i_numberOfVirtualWei","type":"uint256","internalType":"uint256"}],"stateMutability":"nonpayable"},{"type":"function","name":"allowance","inputs":[{"name":"owner","type":"address","internalType":"address"},{"name":"spender","type":"address","internalType":"address"}],"outputs":[{"name":"","type":"uint256","internalType":"uint256"}],"stateMutability":"view"},{"type":"function","name":"approve","inputs":[{"name":"spender","type":"address","internalType":"address"},{"name":"value","type":"uint256","internalType":"uint256"}],"outputs":[{"name":"","type":"bool","internalType":"bool"}],"stateMutability":"nonpayable"},{"type":"function","name":"balanceOf","inputs":[{"name":"account","type":"address","internalType":"address"}],"outputs":[{"name":"","type":"uint256","internalType":"uint256"}],"stateMutability":"view"},{"type":"function","name":"burn","inputs":[{"name":"_numberOfTokens","type":"uint256","internalType":"uint256"}],"outputs":[],"stateMutability":"nonpayable"},{"type":"function","name":"buyTokens","inputs":[{"name":"wBTCAmount","type":"uint256","internalType":"uint256"}],"outputs":[],"stateMutability":"nonpayable"},{"type":"function","name":"decimals","inputs":[],"outputs":[{"name":"","type":"uint8","internalType":"uint8"}],"stateMutability":"view"},{"type":"function","name":"geNumberOfTokensInTheMarcetCapp","inputs":[],"outputs":[{"name":"","type":"uint256","internalType":"uint256"}],"stateMutability":"view"},{"type":"function","name":"getContractWeiBalance","inputs":[],"outputs":[{"name":"","type":"uint256","internalType":"uint256"}],"stateMutability":"view"},{"type":"function","name":"getMarketCap","inputs":[],"outputs":[{"name":"","type":"uint256","internalType":"uint256"}],"stateMutability":"view"},{"type":"function","name":"getValueOfOneTokenInWei","inputs":[],"outputs":[{"name":"","type":"uint256","internalType":"uint256"}],"stateMutability":"view"},{"type":"function","name":"getcompanyAllreadyWithdrawalThisMany","inputs":[],"outputs":[{"name":"","type":"int256","internalType":"int256"}],"stateMutability":"view"},{"type":"function","name":"getcompanyWithdrawalPercentage","inputs":[],"outputs":[{"name":"","type":"uint256","internalType":"uint256"}],"stateMutability":"view"},{"type":"function","name":"getownerAllreadyWithdrawalThisMany","inputs":[],"outputs":[{"name":"","type":"uint256","internalType":"uint256"}],"stateMutability":"view"},{"type":"function","name":"getsecondownerAllreadyWithdrawalThisMany","inputs":[],"outputs":[{"name":"","type":"uint256","internalType":"uint256"}],"stateMutability":"view"},{"type":"function","name":"getwBTCBalance","inputs":[],"outputs":[{"name":"","type":"uint256","internalType":"uint256"}],"stateMutability":"view"},{"type":"function","name":"getwBTCBalanceNotZero","inputs":[],"outputs":[{"name":"","type":"uint256","internalType":"uint256"}],"stateMutability":"view"},{"type":"function","name":"mint","inputs":[{"name":"_numberOfTokens","type":"uint256","internalType":"uint256"}],"outputs":[],"stateMutability":"nonpayable"},{"type":"function","name":"name","inputs":[],"outputs":[{"name":"","type":"string","internalType":"string"}],"stateMutability":"view"},{"type":"function","name":"owner","inputs":[],"outputs":[{"name":"","type":"address","internalType":"address"}],"stateMutability":"view"},{"type":"function","name":"renounceOwnership","inputs":[],"outputs":[],"stateMutability":"nonpayable"},{"type":"function","name":"sellTokens","inputs":[{"name":"_tokenAmount","type":"uint256","internalType":"uint256"}],"outputs":[],"stateMutability":"nonpayable"},{"type":"function","name":"setCompanyCanWithdraw","inputs":[{"name":"_companyCanWithdraw","type":"bool","internalType":"bool"}],"outputs":[],"stateMutability":"nonpayable"},{"type":"function","name":"setcompanyWithdrawalPercentage","inputs":[{"name":"newcompanyWithdrawalPercentage","type":"uint8","internalType":"uint8"}],"outputs":[],"stateMutability":"nonpayable"},{"type":"function","name":"symbol","inputs":[],"outputs":[{"name":"","type":"string","internalType":"string"}],"stateMutability":"view"},{"type":"function","name":"totalSupply","inputs":[],"outputs":[{"name":"","type":"uint256","internalType":"uint256"}],"stateMutability":"view"},{"type":"function","name":"transfer","inputs":[{"name":"to","type":"address","internalType":"address"},{"name":"value","type":"uint256","internalType":"uint256"}],"outputs":[{"name":"","type":"bool","internalType":"bool"}],"stateMutability":"nonpayable"},{"type":"function","name":"transferFrom","inputs":[{"name":"from","type":"address","internalType":"address"},{"name":"to","type":"address","internalType":"address"},{"name":"value","type":"uint256","internalType":"uint256"}],"outputs":[{"name":"","type":"bool","internalType":"bool"}],"stateMutability":"nonpayable"},{"type":"function","name":"transferOwnership","inputs":[{"name":"newOwner","type":"address","internalType":"address"}],"outputs":[],"stateMutability":"nonpayable"},{"type":"function","name":"uplodeMoney","inputs":[{"name":"wBTCAmount","type":"uint256","internalType":"uint256"}],"outputs":[],"stateMutability":"nonpayable"},{"type":"function","name":"wBTC","inputs":[],"outputs":[{"name":"","type":"address","internalType":"contract IERC20"}],"stateMutability":"view"},{"type":"function","name":"withdowOwners","inputs":[{"name":"withdrawValueinWei","type":"uint256","internalType":"uint256"}],"outputs":[],"stateMutability":"nonpayable"},{"type":"function","name":"withdrawCompany","inputs":[{"name":"withdrawValueinWei","type":"uint256","internalType":"uint256"}],"outputs":[],"stateMutability":"nonpayable"},{"type":"event","name":"Approval","inputs":[{"name":"owner","type":"address","indexed":true,"internalType":"address"},{"name":"spender","type":"address","indexed":true,"internalType":"address"},{"name":"value","type":"uint256","indexed":false,"internalType":"uint256"}],"anonymous":false},{"type":"event","name":"OwnershipTransferred","inputs":[{"name":"previousOwner","type":"address","indexed":true,"internalType":"address"},{"name":"newOwner","type":"address","indexed":true,"internalType":"address"}],"anonymous":false},{"type":"event","name":"Transfer","inputs":[{"name":"from","type":"address","indexed":true,"internalType":"address"},{"name":"to","type":"address","indexed":true,"internalType":"address"},{"name":"value","type":"uint256","indexed":false,"internalType":"uint256"}],"anonymous":false},{"type":"error","name":"Coin__BurnMoreThanTheTokensInTheMarcatCap","inputs":[]},{"type":"error","name":"Coin__CompanyWantsToWithdrawMoreMoneyThanAllowed","inputs":[]},{"type":"error","name":"Coin__FailedToReceiveWBTC","inputs":[]},{"type":"error","name":"Coin__FailedToSendBIT","inputs":[]},{"type":"error","name":"Coin__FailedToSendWBTC","inputs":[]},{"type":"error","name":"Coin__InsufficientBITInContract","inputs":[]},{"type":"error","name":"Coin__InsufficientTokens","inputs":[]},{"type":"error","name":"Coin__InsufficientWBTC","inputs":[]},{"type":"error","name":"Coin__InsufficientWBTCInContract","inputs":[]},{"type":"error","name":"Coin__MustBeMoreThanZero","inputs":[]},{"type":"error","name":"Coin__NotAuthorized","inputs":[]},{"type":"error","name":"Coin__NotEnoughTokensAvailable","inputs":[]},{"type":"error","name":"Coin__WBTCTransferFailed","inputs":[]},{"type":"error","name":"Coin__bitBalanceMustBeMoreThanZero","inputs":[]},{"type":"error","name":"ERC20InsufficientAllowance","inputs":[{"name":"spender","type":"address","internalType":"address"},{"name":"allowance","type":"uint256","internalType":"uint256"},{"name":"needed","type":"uint256","internalType":"uint256"}]},{"type":"error","name":"ERC20InsufficientBalance","inputs":[{"name":"sender","type":"address","internalType":"address"},{"name":"balance","type":"uint256","internalType":"uint256"},{"name":"needed","type":"uint256","internalType":"uint256"}]},{"type":"error","name":"ERC20InvalidApprover","inputs":[{"name":"approver","type":"address","internalType":"address"}]},{"type":"error","name":"ERC20InvalidReceiver","inputs":[{"name":"receiver","type":"address","internalType":"address"}]},{"type":"error","name":"ERC20InvalidSender","inputs":[{"name":"sender","type":"address","internalType":"address"}]},{"type":"error","name":"ERC20InvalidSpender","inputs":[{"name":"spender","type":"address","internalType":"address"}]},{"type":"error","name":"OwnableInvalidOwner","inputs":[{"name":"owner","type":"address","internalType":"address"}]},{"type":"error","name":"OwnableUnauthorizedAccount","inputs":[{"name":"account","type":"address","internalType":"address"}]},{"type":"error","name":"ReentrancyGuardReentrantCall","inputs":[]}],"bytecode":{"object":"0x6101406040525f60088190556009819055600c805460ff19908116601417909155600d829055600e91909155600f80549091166001179055348015610042575f5ffd5b506040516125b73803806125b783398101604081905261006191610490565b306040518060400160405280600b81526020016a43727970746f53746f636b60a81b81525060405180604001604052806002815260200161435360f01b81525081600390816100b091906105a0565b5060046100bd82826105a0565b5050506001600160a01b0381166100ee57604051631e4fbdf760e01b81525f60048201526024015b60405180910390fd5b6100f781610238565b506001600655600780546001600160a01b031916739be89d2a4cd102d8fecc6bf9da793be995c22541908117909155604080516318160ddd60e01b8152905161018c92916318160ddd9160048083019260209291908290030181865afa158015610163573d5f5f3e3d5ffd5b505050506040513d601f19601f82011682018060405250810190610187919061065a565b610289565b336080526001600160a01b0386811661012052600c805460ff191660ff8881169190911790915584811660e052851660a052821660c052600b8190556101ee306101d4601290565b6101df90600a61076a565b6101e9908a61077f565b6102d5565b6002546101fd6012600a61076a565b600b5461020a919061077f565b6102149190610796565b600a55600254600b54610227919061077f565b61010052506107c895505050505050565b600580546001600160a01b038381166001600160a01b0319831681179093556040519116919082907f8be0079c531659141344cd1fd0a4f28419497f9722a3daafe3b4186f6b6457e0905f90a35050565b6102d28160405160240161029f91815260200190565b60408051601f198184030181529190526020810180516001600160e01b0390811663f82c50f160e01b1790915261030d16565b50565b6001600160a01b0382166102fe5760405163ec442f0560e01b81525f60048201526024016100e5565b6103095f8383610320565b5050565b6102d28161044660201b6112141760201c565b6001600160a01b03831661034a578060025f82825461033f91906107b5565b909155506103ba9050565b6001600160a01b0383165f908152602081905260409020548181101561039c5760405163391434e360e21b81526001600160a01b038516600482015260248101829052604481018390526064016100e5565b6001600160a01b0384165f9081526020819052604090209082900390555b6001600160a01b0382166103d6576002805482900390556103f4565b6001600160a01b0382165f9081526020819052604090208054820190555b816001600160a01b0316836001600160a01b03167fddf252ad1be2c89b69c2b068fc378daa952ba7f163c4a11628f55a4df523b3ef8360405161043991815260200190565b60405180910390a3505050565b5f6a636f6e736f6c652e6c6f6790505f5f835160208501845afa505050565b80516001600160a01b038116811461047b575f5ffd5b919050565b805160ff8116811461047b575f5ffd5b5f5f5f5f5f5f5f60e0888a0312156104a6575f5ffd5b875196506104b660208901610465565b95506104c460408901610480565b94506104d260608901610480565b93506104e060808901610480565b92506104ee60a08901610465565b91505f60c089015190508091505092959891949750929550565b634e487b7160e01b5f52604160045260245ffd5b600181811c9082168061053057607f821691505b60208210810361054e57634e487b7160e01b5f52602260045260245ffd5b50919050565b601f82111561059b57805f5260205f20601f840160051c810160208510156105795750805b601f840160051c820191505b81811015610598575f8155600101610585565b50505b505050565b81516001600160401b038111156105b9576105b9610508565b6105cd816105c7845461051c565b84610554565b6020601f8211600181146105ff575f83156105e85750848201515b5f19600385901b1c1916600184901b178455610598565b5f84815260208120601f198516915b8281101561062e578785015182556020948501946001909201910161060e565b508482101561064b57868401515f19600387901b60f8161c191681555b50505050600190811b01905550565b5f6020828403121561066a575f5ffd5b5051919050565b634e487b7160e01b5f52601160045260245ffd5b6001815b60018411156106c0578085048111156106a4576106a4610671565b60018416156106b257908102905b60019390931c928002610689565b935093915050565b5f826106d657506001610764565b816106e257505f610764565b81600181146106f857600281146107025761071e565b6001915050610764565b60ff84111561071357610713610671565b50506001821b610764565b5060208310610133831016604e8410600b8410161715610741575081810a610764565b61074d5f198484610685565b805f190482111561076057610760610671565b0290505b92915050565b5f61077860ff8416836106c8565b9392505050565b808202811582820484141761076457610764610671565b5f826107b057634e487b7160e01b5f52601260045260245ffd5b500490565b8082018082111561076457610764610671565b60805160a05160c05160e0516101005161012051611d3f6108785f395f81816104dc0152818161053601528181610b0a01528181610ef70152610f7801525f81816108a501528181610c2301528181611116015261170501525f81816106650152610dd901525f81816106360152818161068901528181610ad70152610ec401525f81816105c80152610dfd01525f8181610599015281816105ec01528181610aa50152610e920152611d3f5ff3fe608060405234801561000f575f5ffd5b50600436106101e7575f3560e01c8063715018a611610109578063a9059cbb1161009e578063dd62ed3e1161006e578063dd62ed3e146103cf578063e0f5018a14610407578063f2fde38b1461040d578063f3836a4314610420575f5ffd5b8063a9059cbb14610396578063ba8e0b5f146103a9578063d7b571b8146103bc578063dc87fe7e146103c4575f5ffd5b806390825c28116100d957806390825c281461036057806395d89b41146103685780639b45293114610370578063a0712d6814610383575f5ffd5b8063715018a6146103185780637c131dea146103205780637ec8bc20146103335780638da5cb5b1461033b575f5ffd5b80632545a1181161017f57806336f324631161014f57806336f32463146102c257806342966c68146102ca5780636c11bcd3146102dd57806370a08231146102f0575f5ffd5b80632545a118146102905780632c9b75ec14610298578063313ce567146102a05780633610724e146102af575f5ffd5b80630ba5bc50116101ba5780630ba5bc501461024f578063171cbf691461026257806318160ddd1461027557806323b872dd1461027d575f5ffd5b806303253e25146101eb57806306fdde0314610202578063095ea7b3146102175780630b6fc2391461023a575b5f5ffd5b6008545b6040519081526020015b60405180910390f35b61020a610428565b6040516101f99190611906565b61022a610225366004611935565b6104b8565b60405190151581526020016101f9565b61024d61024836600461195d565b6104d1565b005b61024d61025d366004611981565b610574565b61024d61027036600461195d565b61058f565b6002546101ef565b61022a61028b36600461199c565b6106d7565b600d546101ef565b6101ef6106fa565b604051601281526020016101f9565b61024d6102bd36600461195d565b6107b5565b6009546101ef565b61024d6102d836600461195d565b610a9a565b61024d6102eb36600461195d565b610ba3565b6101ef6102fe3660046119d6565b6001600160a01b03165f9081526020819052604090205490565b61024d610dba565b61024d61032e3660046119ef565b610dcd565b600e546101ef565b6005546001600160a01b03165b6040516001600160a01b0390911681526020016101f9565b6101ef610e62565b61020a610e78565b600754610348906001600160a01b031681565b61024d61039136600461195d565b610e87565b61022a6103a4366004611935565b610f60565b61024d6103b736600461195d565b610f6d565b600a546101ef565b600c5460ff166101ef565b6101ef6103dd366004611a0f565b6001600160a01b039182165f90815260016020908152604080832093909416825291909152205490565b476101ef565b61024d61041b3660046119d6565b6111a9565b6101ef6111e8565b60606003805461043790611a40565b80601f016020809104026020016040519081016040528092919081815260200182805461046390611a40565b80156104ae5780601f10610485576101008083540402835291602001916104ae565b820191905f5260205f20905b81548152906001019060200180831161049157829003601f168201915b5050505050905090565b5f336104c5818585611233565b60019150505b92915050565b336001600160a01b037f0000000000000000000000000000000000000000000000000000000000000000161461051a57604051633e5a022160e01b815260040160405180910390fd5b600f5460ff161561057157600d54600c5461055a91839160ff167f0000000000000000000000000000000000000000000000000000000000000000611245565b80600d5f82825461056b9190611a8c565b90915550505b50565b61057c61135b565b600f805460ff1916911515919091179055565b6001600160a01b037f000000000000000000000000000000000000000000000000000000000000000016330361062c57610610816008547f000000000000000000000000000000000000000000000000000000000000000060ff167f0000000000000000000000000000000000000000000000000000000000000000611245565b8060085f8282546106219190611ab3565b909155506105719050565b6001600160a01b037f00000000000000000000000000000000000000000000000000000000000000001633036106be576106ad816009547f000000000000000000000000000000000000000000000000000000000000000060ff167f0000000000000000000000000000000000000000000000000000000000000000611245565b8060095f8282546106219190611ab3565b604051633e5a022160e01b815260040160405180910390fd5b5f336106e4858285611388565b6106ef8585856113fd565b506001949350505050565b6040516370a0823160e01b81523060048201525f908190739be89d2a4cd102d8fecc6bf9da793be995c22541906370a0823190602401602060405180830381865afa15801561074b573d5f5f3e3d5ffd5b505050506040513d601f19601f8201168201806040525081019061076f9190611ac6565b90506107b06040518060400160405280601781526020017f436f6e747261637420574254432062616c616e63653a200000000000000000008152508261145a565b919050565b6107bd6114a3565b806040516370a0823160e01b81523360048201525f90739be89d2a4cd102d8fecc6bf9da793be995c22541906370a0823190602401602060405180830381865afa15801561080d573d5f5f3e3d5ffd5b505050506040513d601f19601f820116820180604052508101906108319190611ac6565b905081811015610854576040516314631a4560e11b815260040160405180910390fd5b610889604051806040016040528060148152602001732432b9329034b99034ba103a34329032b93937b960611b8152506114cd565b5f600b546108956106fa565b61089f9190611ab3565b6108c9907f0000000000000000000000000000000000000000000000000000000000000000611af1565b9050610901604051806040016040528060158152602001742432b9329034b99034ba103a34329032b93937b91960591b8152506114cd565b5f81600e5461090f60025490565b6109199190611b04565b6109239190611b04565b905061095b604051806040016040528060158152602001744865726520697320697420746865206572726f723360581b8152506114cd565b305f9081526020819052604090205481111561098a57604051636562594760e01b815260040160405180910390fd5b6109c06040518060400160405280601581526020017412195c99481a5cc81a5d081d1a1948195c9c9bdc8d605a1b8152506114cd565b6040516323b872dd60e01b8152336004820152306024820152604481018690525f90739be89d2a4cd102d8fecc6bf9da793be995c22541906323b872dd906064016020604051808303815f875af1158015610a1d573d5f5f3e3d5ffd5b505050506040513d601f19601f82011682018060405250810190610a419190611b17565b905080610a61576040516336ffdad760e01b815260040160405180910390fd5b610a6c3033846113fd565b81600e5f828254610a7d9190611ab3565b90915550610a8b9050611510565b50505050506105716001600655565b336001600160a01b037f0000000000000000000000000000000000000000000000000000000000000000161480610af95750336001600160a01b037f000000000000000000000000000000000000000000000000000000000000000016145b80610b2c5750336001600160a01b037f000000000000000000000000000000000000000000000000000000000000000016145b610b4957604051633e5a022160e01b815260040160405180910390fd5b5f8111610b695760405163b5b9a29d60e01b815260040160405180910390fd5b600e54600254610b799190611b04565b811115610b9957604051638e104be760e01b815260040160405180910390fd5b610571308261155a565b610bab6114a3565b5f8111610bcb5760405163b5b9a29d60e01b815260040160405180910390fd5b335f9081526020819052604090205481811015610bfb576040516319b99e4b60e11b815260040160405180910390fd5b5f82600e54610c0960025490565b610c139190611b04565b610c1d9190611ab3565b610c47907f0000000000000000000000000000000000000000000000000000000000000000611af1565b90505f81600b54610c566106fa565b610c609190611ab3565b610c6a9190611b04565b6040516370a0823160e01b81523060048201529091505f90739be89d2a4cd102d8fecc6bf9da793be995c22541906370a0823190602401602060405180830381865afa158015610cbc573d5f5f3e3d5ffd5b505050506040513d601f19601f82011682018060405250810190610ce09190611ac6565b905081811015610d03576040516343575d2360e01b815260040160405180910390fd5b610d0e3330876113fd565b60405163a9059cbb60e01b8152336004820152602481018390525f90739be89d2a4cd102d8fecc6bf9da793be995c225419063a9059cbb906044016020604051808303815f875af1158015610d65573d5f5f3e3d5ffd5b505050506040513d601f19601f82011682018060405250810190610d899190611b17565b905080610da95760405163645cc57160e01b815260040160405180910390fd5b85600e5f828254610a7d9190611b04565b610dc261135b565b610dcb5f61158e565b565b610dd561135b565b60647f0000000000000000000000000000000000000000000000000000000000000000610e227f000000000000000000000000000000000000000000000000000000000000000084611b32565b610e2c9190611b32565b60ff161015610e4957600c805460ff831660ff1990911617905550565b6040516332297daf60e01b815260040160405180910390fd5b5f600a54600e54610e739190611b4b565b905090565b60606004805461043790611a40565b336001600160a01b037f0000000000000000000000000000000000000000000000000000000000000000161480610ee65750336001600160a01b037f000000000000000000000000000000000000000000000000000000000000000016145b80610f195750336001600160a01b037f000000000000000000000000000000000000000000000000000000000000000016145b610f3657604051633e5a022160e01b815260040160405180910390fd5b5f8111610f565760405163b5b9a29d60e01b815260040160405180910390fd5b61057130826115df565b5f336104c58185856113fd565b336001600160a01b037f00000000000000000000000000000000000000000000000000000000000000001614610fb657604051633e5a022160e01b815260040160405180910390fd5b610fbe6114a3565b806040516370a0823160e01b81523360048201525f90739be89d2a4cd102d8fecc6bf9da793be995c22541906370a0823190602401602060405180830381865afa15801561100e573d5f5f3e3d5ffd5b505050506040513d601f19601f820116820180604052508101906110329190611ac6565b905081811015611055576040516314631a4560e11b815260040160405180910390fd5b6040516323b872dd60e01b8152336004820152306024820152604481018490525f90739be89d2a4cd102d8fecc6bf9da793be995c22541906323b872dd906064016020604051808303815f875af11580156110b2573d5f5f3e3d5ffd5b505050506040513d601f19601f820116820180604052508101906110d69190611b17565b9050806110f65760405163afdbcc6360e01b815260040160405180910390fd5b5f6110ff6111e8565b90505f600b54826111109190611ab3565b61113a907f0000000000000000000000000000000000000000000000000000000000000000611af1565b905061116081600e5461114c60025490565b6111569190611b04565b6102d89190611b04565b61116a8683611b04565b600b546111779088611b4b565b6111819190611af1565b600b5f8282546111919190611ab3565b9250508190555085600d5f828254610a7d9190611b62565b6111b161135b565b6001600160a01b0381166111df57604051631e4fbdf760e01b81525f60048201526024015b60405180910390fd5b6105718161158e565b5f5f6111f26106fa565b90505f81116107b05760405163b5b9a29d60e01b815260040160405180910390fd5b5f6a636f6e736f6c652e6c6f6790505f5f835160208501845afa505050565b6112408383836001611613565b505050565b61124d6114a3565b5f6112566106fa565b90505f60646112658584611b88565b61126f9190611bb7565b90508061127c8688611a8c565b131561129b576040516343575d2360e01b815260040160405180910390fd5b60405163a9059cbb60e01b81526001600160a01b0384166004820152602481018790525f90739be89d2a4cd102d8fecc6bf9da793be995c225419063a9059cbb906044016020604051808303815f875af11580156112fb573d5f5f3e3d5ffd5b505050506040513d601f19601f8201168201806040525081019061131f9190611b17565b90508061133f5760405163645cc57160e01b815260040160405180910390fd5b611348876116e5565b5050506113556001600655565b50505050565b6005546001600160a01b03163314610dcb5760405163118cdaa760e01b81523360048201526024016111d6565b6001600160a01b038381165f908152600160209081526040808320938616835292905220545f19811461135557818110156113ef57604051637dc7a0d960e11b81526001600160a01b038416600482015260248101829052604481018390526064016111d6565b61135584848484035f611613565b6001600160a01b03831661142657604051634b637e8f60e11b81525f60048201526024016111d6565b6001600160a01b03821661144f5760405163ec442f0560e01b81525f60048201526024016111d6565b6112408383836117a1565b61149f8282604051602401611470929190611be3565b60408051601f198184030181529190526020810180516001600160e01b0316632d839cb360e21b1790526118c7565b5050565b6002600654036114c657604051633ee5aeb560e01b815260040160405180910390fd5b6002600655565b610571816040516024016114e19190611906565b60408051601f198184030181529190526020810180516001600160e01b031663104c13eb60e21b1790526118c7565b600e546002546115209190611b04565b61152c6012600a611ce7565b6115346106fa565b600b546115419190611ab3565b61154b9190611b4b565b6115559190611af1565b600a55565b6001600160a01b03821661158357604051634b637e8f60e11b81525f60048201526024016111d6565b61149f825f836117a1565b600580546001600160a01b038381166001600160a01b0319831681179093556040519116919082907f8be0079c531659141344cd1fd0a4f28419497f9722a3daafe3b4186f6b6457e0905f90a35050565b6001600160a01b0382166116085760405163ec442f0560e01b81525f60048201526024016111d6565b61149f5f83836117a1565b6001600160a01b03841661163c5760405163e602df0560e01b81525f60048201526024016111d6565b6001600160a01b03831661166557604051634a1406b160e11b81525f60048201526024016111d6565b6001600160a01b038085165f908152600160209081526040808320938716835292905220829055801561135557826001600160a01b0316846001600160a01b03167f8c5be1e5ebec7d5bd14f71427d1e84f3dd0314c0f7b2291e5b200ac8c7c3b925846040516116d791815260200190565b60405180910390a350505050565b5f6116ee6111e8565b90505f600b54826116ff9190611ab3565b611729907f0000000000000000000000000000000000000000000000000000000000000000611af1565b90505f600e5461173860025490565b6117429190611b04565b61174c9083611b04565b905061175781610e87565b5f6117628585611ab3565b600b5461176f9087611b4b565b6117799190611af1565b905080600b5f82825461178c9190611b04565b9091555061179a9050611510565b5050505050565b6001600160a01b0383166117cb578060025f8282546117c09190611ab3565b9091555061183b9050565b6001600160a01b0383165f908152602081905260409020548181101561181d5760405163391434e360e21b81526001600160a01b038516600482015260248101829052604481018390526064016111d6565b6001600160a01b0384165f9081526020819052604090209082900390555b6001600160a01b03821661185757600280548290039055611875565b6001600160a01b0382165f9081526020819052604090208054820190555b816001600160a01b0316836001600160a01b03167fddf252ad1be2c89b69c2b068fc378daa952ba7f163c4a11628f55a4df523b3ef836040516118ba91815260200190565b60405180910390a3505050565b61057181611214565b610dcb611cf5565b5f81518084528060208401602086015e5f602082860101526020601f19601f83011685010191505092915050565b602081525f61191860208301846118d8565b9392505050565b80356001600160a01b03811681146107b0575f5ffd5b5f5f60408385031215611946575f5ffd5b61194f8361191f565b946020939093013593505050565b5f6020828403121561196d575f5ffd5b5035919050565b8015158114610571575f5ffd5b5f60208284031215611991575f5ffd5b813561191881611974565b5f5f5f606084860312156119ae575f5ffd5b6119b78461191f565b92506119c56020850161191f565b929592945050506040919091013590565b5f602082840312156119e6575f5ffd5b6119188261191f565b5f602082840312156119ff575f5ffd5b813560ff81168114611918575f5ffd5b5f5f60408385031215611a20575f5ffd5b611a298361191f565b9150611a376020840161191f565b90509250929050565b600181811c90821680611a5457607f821691505b602082108103611a7257634e487b7160e01b5f52602260045260245ffd5b50919050565b634e487b7160e01b5f52601160045260245ffd5b8082018281125f831280158216821582161715611aab57611aab611a78565b505092915050565b808201808211156104cb576104cb611a78565b5f60208284031215611ad6575f5ffd5b5051919050565b634e487b7160e01b5f52601260045260245ffd5b5f82611aff57611aff611add565b500490565b818103818111156104cb576104cb611a78565b5f60208284031215611b27575f5ffd5b815161191881611974565b60ff81811683821601908111156104cb576104cb611a78565b80820281158282048414176104cb576104cb611a78565b8181035f831280158383131683831282161715611b8157611b81611a78565b5092915050565b8082025f8212600160ff1b84141615611ba357611ba3611a78565b81810583148215176104cb576104cb611a78565b5f82611bc557611bc5611add565b600160ff1b82145f1984141615611bde57611bde611a78565b500590565b604081525f611bf560408301856118d8565b90508260208301529392505050565b6001815b6001841115611c3f57808504811115611c2357611c23611a78565b6001841615611c3157908102905b60019390931c928002611c08565b935093915050565b5f82611c55575060016104cb565b81611c6157505f6104cb565b8160018114611c775760028114611c8157611c9d565b60019150506104cb565b60ff841115611c9257611c92611a78565b50506001821b6104cb565b5060208310610133831016604e8410600b8410161715611cc0575081810a6104cb565b611ccc5f198484611c04565b805f1904821115611cdf57611cdf611a78565b029392505050565b5f61191860ff841683611c47565b634e487b7160e01b5f52605160045260245ffdfea2646970667358221220849ea390af6397d2e5ef5d597f96e5e53a746e831c2e2e4e513ecf4bc4197d6464736f6c634300081b0033","linkReferences":{}},"methodIdentifiers":{"allowance(address,address)":"dd62ed3e","approve(address,uint256)":"095ea7b3","balanceOf(address)":"70a08231","burn(uint256)":"42966c68","buyTokens(uint256)":"3610724e","decimals()":"313ce567","geNumberOfTokensInTheMarcetCapp()":"7ec8bc20","getContractWeiBalance()":"e0f5018a","getMarketCap()":"90825c28","getValueOfOneTokenInWei()":"d7b571b8","getcompanyAllreadyWithdrawalThisMany()":"2545a118","getcompanyWithdrawalPercentage()":"dc87fe7e","getownerAllreadyWithdrawalThisMany()":"03253e25","getsecondownerAllreadyWithdrawalThisMany()":"36f32463","getwBTCBalance()":"2c9b75ec","getwBTCBalanceNotZero()":"f3836a43","mint(uint256)":"a0712d68","name()":"06fdde03","owner()":"8da5cb5b","renounceOwnership()":"715018a6","sellTokens(uint256)":"6c11bcd3","setCompanyCanWithdraw(bool)":"0ba5bc50","setcompanyWithdrawalPercentage(uint8)":"7c131dea","symbol()":"95d89b41","totalSupply()":"18160ddd","transfer(address,uint256)":"a9059cbb","transferFrom(address,address,uint256)":"23b872dd","transferOwnership(address)":"f2fde38b","uplodeMoney(uint256)":"ba8e0b5f","wBTC()":"9b452931","withdowOwners(uint256)":"171cbf69","withdrawCompany(uint256)":"0b6fc239"},"id":32}